:020000040000FA
:060000000200D3020AEE2B
:030013000207C819
:030043000205C1F2
:03007B0002164921
:1000830002143300000080FB1200E2B900030200F7
:10009300CDE490F080785F79028002F0A3D8FCD998
:1000A300FA90F1DEAA82AB839000E5783C79018077
:1000B30015E493A3AC82AD838A828B83F0A3AA82D7
:1000C300AB838C828D83D8E9D9E71207E1120086CE
:1000D30075D0007581BF7510807593F002008B7920
:1000E30001225C9D060074657374001A00000031E0
:1000F300323300313233320063636300535353535B
:10010300004646464600314200FF00000000010061
:10011300000F000000F4010000FFFFFFFFE0667026
:100123001008A3E066700A08A3E066700408A3E061
:100133006622C3E7960809E7960809E7960809E7E0
:100143009622C008C3E096F50808A3E09642080883
:10015300A3E096420808A3E09645087001D3D008AF
:1001630022080808EAC0E0EBC0E086F0E7A4FA182A
:100173000986F0E7A42AFA180986F0E7A42AFA18F0
:100183000986F0E7A42AFA1986F0E7A4FBE5F02A2A
:10019300FA190886F0E7A42BFBE5F03AFA1908866A
:1001A300F0E7A42BFBE5F03AFA18180986F0E7A468
:1001B300C5F02BFBE43AFA1908E7C5F0C6A426F606
:1001C300E5F03BFBE43AFA1886F0E7A4F6E5F0081D
:1001D30026F6E43B08F6E43A08F6D0E0FBD0E0FA72
:1001E300226016080808C6C313C618C613C618C665
:1001F30013C618C613C6D5E0EA22E627F60809E6B1
:1002030037F60809E637F60809E637F622E026F658
:1002130008A3E036F608A3E036F608A3E036F62294
:10022300E0F608A3E0F608A3E0F608A3E0F622E070
:10023300FAA3E0FBA3E0FCA3E0FD22CAC0E0E6F3DF
:100243000908DAFAD0E0FA22CAC0E0E0F208A3DA39
:10025300FAD0E0FA22700422600D18C6C333C60830
:10026300C633C6D5E0F41822E473D083D0822510B8
:10027300F8C510C39824FBCEF208E520F208E9C0C4
:10028300E07908E709F208DEFAD0E0F9EFF208D0E6
:10029300E0FED0E0F208EEF208E473A810E2FE08F4
:1002A300E208F520E9C0E07908E208F709DFFAE29D
:1002B30008FFD0E0F9E208C0E0E208C0E0881022BD
:1002C300C0D0C0F088F02510F8C510C39824F3C03F
:1002D300E0E5F0F208E9F208EAF208EBF208D0E010
:1002E300FB7908E709F208DBFAE582F208E583F215
:1002F30008D0E0F208D0E0F208E520F208ECF208BA
:10030300EDF208EEF208EFF222A810E208C0E0E2F4
:1003130008C0E0E208FAE208FB7908E208F709DF1F
:10032300FAE208F582E208F583E208F5F0E208F55F
:10033300D0E208F520E208FCE208FDE208FEE2084C
:10034300FF8810D0E0F9D0E0F8D0E03274028002E8
:100353007401C9C0E0E510C399F510C912023ED07B
:10036300E0F92274F912026D7508007F0180010F14
:10037300EFC39406A2D265D0335028EFF83395E04B
:10038300F9E875F003A4C8AEF075F000A42EFE756D
:10039300F003E9A42EF974A028F58274F039F583EB
:1003A300E070CCEFC39406A2D265D033400E8A82AC
:1003B3008B837400F07A007B000204687508017572
:1003C3000900EF7808120258E508541F4480F5D657
:1003D300750801750900EF7808120258E508F45210
:1003E300D1E5A8F508C2AFEFF83395E0F9E875F069
:1003F30003A4C8AEF075F000A42EFE75F003E9A4C3
:100403002EF974A028F58274F039F5837401F0EFA6
:10041300F83395E0F9E875F003A4C8AEF075F00081
:10042300A42EFE75F003E9A42EF974A128F58274B5
:10043300F039F583ECF0A3EDF0EF8A828B83F0853E
:1004430008A8EFF83395E0F9E875F008A4C8AAF016
:1004530075F000A42AFA75F008E9A42AF97478283B
:10046300FA74F039FB7F0202029E74FA12026D8A5B
:10047300828B8374DFF08A828B83A374D9F0ECFEC2
:10048300EDFFE4EFFE8A828B83A3A3F0EC8A828BD9
:1004930083A3A3A3F08A828B83A3A3A3A3E054E043
:1004A300F08A828B83A3A3A3A3A374FFF08A828B16
:1004B30083A3A3A3A3E0541F44808A828B83A3A3B3
:1004C300A3A3F08A828B83A3A3A3A3A3A3A3E05430
:1004D300FCF08A828B83A3A3A3A3A3A3A3E0C2E21A
:1004E300F08A828B83A3A3A3A3A3A3A3E9A2E0E03F
:1004F30092E3F08A828B83A3A3A3A3A3A3A3E054D1
:10050300CF44108A828B83A3A3A3A3A3A3A3F08ABC
:10051300828B83A3A3A3A3A3A3A3E0543FF08A8264
:100523008B83A3A3A3A3A3A3E054E044138A828BE6
:1005330083A3A3A3A3A3A3F08A828B83A3A3A3A3CD
:10054300A3A3E0549FF08A828B83A3A3A3A3A3A3B3
:10055300E0C2E7F07F0102029EC008C009750820CF
:10056300750900780812034F7C007D007A807BF0C8
:10057300121A6A0510051075080F7509007808121C
:10058300034F7C007D007AA07BF0121A6A051005E8
:1005930010E5D6A2E0E433F5D6E5D7A2E0E433F5DF
:1005A300D7E5D1A2E0E433F5D1C2C0D2B8788079DF
:1005B300F0E4E9F8F5D375D280D009D00822C0E081
:1005C30074F21202C37E00C2AFE5D1A2E0501F90C5
:1005D300F0A1E0F8A3E0F9E8496013D3EE92E0FE5E
:1005E30090F0A1E0F8A3E0F583888212026BE5D1D5
:1005F300A2E1501F90F0A4E0F8A3E0F9E8496013EA
:10060300D3EE92E1FE90F0A4E0F8A3E0F5838882B4
:1006130012026BE5D1A2E2501F90F0A7E0F8A3E02D
:10062300F9E8496013D3EE92E2FE90F0A7E0F8A355
:10063300E0F583888212026BE5D1A2E3501F90F0AC
:10064300AAE0F8A3E0F9E8496013D3EE92E3FE9041
:10065300F0AAE0F8A3E0F583888212026BE5D1A249
:10066300E4501F90F0ADE0F8A3E0F9E8496013D33C
:10067300EE92E4FE90F0ADE0F8A3E0F583888212F9
:10068300026BC2C0EEF4F5D1D2AF7F0102030C744A
:10069300F912026DEAFEEBFFE5102407F8E2FA080F
:1006A300E2FB8A088B09E4E509F508E5088E828FE9
:1006B30083E508F0EA8E828F83A3F08E828F83A373
:1006C300A374DFF08E828F83A3A3A374D9F0ECFA13
:1006D300EDFBE4EBFA541FF88E828F83A3A3A3A34D
:1006E300E054E0488E828F83A3A3A3A3F0ECFA8E99
:1006F300828F83A3A3A3A3A3E0F8EA8E828F83A3AD
:10070300A3A3A3A3F08E828F83A3A3A3A3E0541F69
:10071300F08E828F83A3A3A3A3A3A3A3E054FCF02F
:100723008E828F83A3A3A3A3A3A3A3E0C2E2F08E2D
:10073300828F83A3A3A3A3A3A3A3E9A2E0E092E3ED
:10074300F08E828F83A3A3A3A3A3A3A3E054CFF02C
:100753008E828F83A3A3A3A3A3A3A3E0543F444008
:100763008E828F83A3A3A3A3A3A3A3F08E828F83DD
:10077300A3A3A3A3A3A3E054E044138E828F83A374
:10078300A3A3A3A3A3F08E828F83A3A3A3A3A3A353
:10079300E0549FF08E828F83A3A3A3A3A3A3E0C2FD
:1007A300E7F07F0202029E75FE3B743065F360043E
:1007B300D2F08002C2F0A2F0E433F8790043FD30B6
:1007C300C290D29122C0E0C0D0C082C083C28BE568
:1007D300C190F0AFF0D083D082D0D0D0E0321218E5
:1007E300F11207AA7C047D007AE27BF112191879D1
:1007F30000120B9B80F974F712026D8A088B098C27
:100803000A8D0BE9FEF9AA08AB09AC0AAD0B12116C
:1008130029E97F0402029E74F312026D151015106C
:10082300E510A810EAF208EBF2ECFEEDFF890FE504
:1008330010240FF8E2F8750C00750D00750801E53A
:100843000F90F12FF0E890F131F0802C790112191B
:100853004F74FF250EF8880EE8700690F1C47420DB
:10086300F090F1C4E064807004E50E70DF90F1C491
:10087300E064207003750800C3E50C9EE50D9F40FE
:100883000302093B74016508600302093B75090310
:10089300EEC3950CF8EF950DF9C3E8947BE994004A
:1008A3004038750A7A750B00780A12034FE5102455
:1008B30002F8E2250CFC08E2350DFD7A327BF112D9
:1008C30019D10510051090F12E747AF0E50C247AF5
:1008D300F50CE50D3400F50D80368E0A8F0B780A82
:1008E30012034FE5102402F8E2250CFC08E2350D53
:1008F300FD7A327BF11219D105100510EE90F12E1D
:10090300F0E50C2EF50CE50D3FF50D8003750900A0
:10091300E509601E7A2E7BF11212DCE9F874046893
:1009230070EB790A12194F1509E50970E375080090
:1009330080DE750E78020864A908051005107F088B
:1009430002029E74F312026D15101510E510A81023
:10095300EAF208EBF28C0E8D0FE510240FF8E2FE9D
:1009630008E2FFE5102411F8E2F50808E2F509753D
:100973000A01750B01750C00EE4F6003750C017ACB
:10098300B07BF01214BA801BE50C601779011219C1
:100993004FEE24FFFEEF34FFFFEE4F7006750B00A2
:1009A300750A0090F1C3E064106004E50B70D9741C
:1009B30001650A7028E510A810E2F58208E2F583C4
:1009C30074B4F0A374F0F090F0B0E0850E82850F5C
:1009D30083F090F0B2E0850882850983F0A90A05C7
:1009E3001005107F0802029E74F712026D8A088BAD
:1009F300098C0A8D0B53BEFBE5BEA2E650FA0053E9
:100A0300C6B843BE0490F1DE7808120120600302E9
:100A13000AE790DF2E74C0F090DF097410F090DFC6
:100A23000A74ACF090DF0B744EF090F1DE7808128C
:100A330001207004740C8002741290DF07F090DFC1
:100A4300077412F090DF087400F090DF0C742DF03F
:100A530090DF0D743BF090DF0E7413F090DF0F7492
:100A630022F090DF1074F8F090DF117462F090DFE1
:100A73001A74B6F090DF1B7410F090DF147418F042
:100A830090DF15741DF090DF16741CF090DF17745F
:100A9300C7F090DF187400F090DF1974B0F090DFA6
:100AA3001C74EAF090F1DE78081201207004740AD5
:100AB3008002742A90DF1DF090DF1F741FF090DF17
:100AC300237488F090DF247431F090DF257409F0EB
:100AD30075E10475E10190DF3BE0640170F8C289C0
:100AE3007901800279007F0402029EC0E0C0D0E851
:100AF300C0E0E9C0E0EAC0E0C082C08390F1ADE0AD
:100B03006014E5D990F1ACF090F1AD7400F090F180
:100B1300B57401F0807090F1ACE0F890F1AEE0C3F1
:100B2300985024E5D9C0E090F1AEE0F8790090F157
:100B3300AFE028FAA3E0398A82F583D0E0F090F1A0
:100B4300AEE02401F0803F90F1AEE0F890F1ACE02C
:100B530068701B90F1AEE02401F0E5D9C0E090F19C
:100B6300B1E0F8A3E0F5838882D0E0F08018E5D9FE
:100B7300C0E090F1B3E0F8A3E0F5838882D0E0F021
:100B830090F1AD7401F0D083D082D0E0FAD0E0F9D7
:100B9300D0E0F8D0D0D0E032EEC0E0E9FEEE702C29
:100BA3007C047D007AEB7BF112191890F1B6740284
:100BB300F090F1B77401F090F1B6E0F990F1B8124A
:100BC30002321207F9D2AF120C01802E74016E703B
:100BD3002990F1B67401F090F1B77402F0790A121A
:100BE300194F90F1B6E0F990F1B81202321207F9F9
:100BF300D2AF790A12194F120CFCD0E0FE2274FA1C
:100C030012026DE51024F4F5107E007440C0E0E597
:100C130010A810D0E0F27401C0E0E5102402F8D06F
:100C2300E0F2740DC0E0E5102404F8D0E0F2D2F055
:100C3300A29030F001B392907C047D007AEF7BF1B7
:100C430012191880237E007C047D007AF87BF11250
:100C5300191874012FF8E8FFE8C394024023EFC387
:100C6300940A40027F027E00A2934015A29350FC97
:100C7300A29350FC7E317C037D007AF47BF1121940
:100C830018EE60E47A007B0080177400C0E0EAF895
:100C9300E510240528F8D0E0F2EA2401FAEB340049
:100CA300FBC3EA9407EB9400A2D265D03340DBD2B6
:100CB300F0A29030F001B392907508017808120306
:100CC3005390F1B7E0F97C057D00E5102401FAAB00
:100CD3009312081A0510E9F87401687003020C48AE
:100CE3007C047D007AFD7BF11219180FEFC3940A7F
:100CF300408F7F027E00020C6B74F712026DE510C9
:100D030024F4F51090F202E5102404F8740312029F
:100D13004B7E007F05020E61D290D2918F0874FF43
:100D23002508FFE5087003020E6174402EC0E0E55C
:100D3300102404F8D0E0F2750901780912035390E6
:100D4300F1B7E0F97C037D00E5102405FAAB9312BB
:100D5300081A0510E9F874016870C1E5102402F55A
:100D63000A85930B780A12034F750A1E750B0078D8
:100D73000A12034FE5102407FCAD93E5102404FA8F
:100D8300AB93120946E5102404F510E9F8740168E1
:100D93007086D2F0A29130F001B39291E510A810C1
:100DA300E2F58208E2F583E0C0E0E5102407F8D01D
:100DB300E0F2E510A810E2F58208E2F583A3E5105E
:100DC300A810E582F208E583F2E510A810E2F582A7
:100DD30008E2F583E0C0E0E5102408F8D0E0F2E58E
:100DE30010A810E2F58208E2F583A3E510A810E548
:100DF30082F208E583F2E510A810E2F58208E2F535
:100E030083E0C0E0E5102409F8D0E0F2E510A81073
:100E1300E2F58208E2F583A3E510A810E582F20863
:100E2300E583F2E510A810E2F58208E2F583E0C05D
:100E3300E0E510240AF8D0E0F2E510A810E2F5820C
:100E430008E2F583A3E510A810E582F208E583F232
:100E53007C057D00E5102407FAAB93121918EEC345
:100E6300940240047E0180010E7F03020D1F74F380
:100E730012026DE9FE8A088B098C0A8D0B7A00E554
:100E8300C6131313541F5407C394064054E5C613E3
:100E93001313541FF879005407F8E95400F9E824B0
:100EA300FBF50CE934FFF50DE50C75F002A4C50C58
:100EB300A8F075F000A428F875F002E50DA428F554
:100EC3000DE50D3395E0F50EF50F780C7908120159
:100ED30035500EE5084509450A450B600479008045
:100EE3002AE5084509450A450B70257A0790F2055E
:100EF300780812022374046E704FEAC43354E0423C
:100F0300EBA808A909E508F5EDA9087F0802029EE8
:100F130090F1E7780C1202237808790C120164E54A
:100F2300C6131313541F540778081201E490F209EF
:100F3300780812014550BE740178081201E40AEAE8
:100F4300C3940840E8790080C274036E7011EAC448
:100F53003354E042CBA808A909E508F5CD80AA7966
:100F63000080A874F912026DEAFEEBFF75E10479C3
:100F73000112194F75080175090090F1C0E0780856
:100F8300120258E508541F4480F5D6C28975E1035F
:100F930053E9EFA28950FC75D903C289A28950FC99
:100FA300C2898E828F83A3A3E0F5D9A28950FCC2A4
:100FB3008990F1C2E0F5D9A28950FCC28975D902A2
:100FC300E5E9A2E450FA53E9EF7F0202029E74F9C5
:100FD30012026D7E0090F1BEE0F8A3E0F5838882F3
:100FE300A3A3A3E0FA7B0090F1BEE0F8A3E0F583AE
:100FF3008882A3A3E0F87900E4C8F9EA48FAEB4948
:10100300FB8A828B83E024FDF08A828B83A3E0F842
:1010130090F1C2E06860088A828B83A3E0706C8AD7
:10102300828B83E0F87900EA28F582EB39F583A314
:10103300A3A3A3A3E0A2E750528A828B83A3A3A313
:10104300E06402700F8A828B83A3A3E0F91213F387
:10105300E9FE803790F1C37440F07E018A828B836E
:10106300A3A3A3E0A2E05003120F6690F1C3741090
:10107300F090F1CFE0F8A3E0F9E849600E90F1CFEA
:10108300E0F8A3E0F583888212026BEE702D000076
:1010930000000000000075080175090090F1C1E02F
:1010A3007808120258E508541FF5D6000000000026
:1010B300000043910190F1C37420F07F0202029E6D
:1010C30090F1CEE0F912156390F1CBE0F8A3E0F9CB
:1010D300E849605190F1CDE0C39403502F90F1CBD8
:1010E300E0F8A3E0F5838882A3A3A3E0D2E2F05360
:1010F300EBEF90F1CBE0FAA3E0FB1212DCE975EA27
:101103000043EB1090F1CDE02401F02290F1CB7479
:1011130000F0A37400F090F1CD7400F090F1C4746A
:1011230020F05391FE2274F812026DE9FF750A0054
:101133007E01F912124990F1C47400F090F1C37466
:1011430000F090F1CD7400F090F1CE7400F090F1C6
:10115300CB7400F0A37400F075E900759100E59B72
:1011630054FCF50885089B750900E59A4401F508C8
:1011730085089A75090090F1DE1202321209EBE933
:10118300F50AE50A70027E0090DF13742FF075E113
:10119300021215E312055C7C007D007AC07BF1121C
:1011A300036690F1BCEAF0A3EBF090F1C0E06009B4
:1011B30090F1C0E0C3940540027E00E4F508F50910
:1011C300780812034F79007C7D7D0090F1BCE0FA32
:1011D300A3E0FB120692051005107CD17D0F7AC1A6
:1011E3007BF112036690F1BEEAF0A3EBF090F1C13C
:1011F300E0600990F1C1E0C3940540027E007901EB
:101203007C007D0090F1BEE0FAA3E0FB12046D7553
:10121300080175090090F1C1E07808120258E50849
:10122300541F4480F5D675080175090090F1C0E09C
:101233007808120258E508541F4480F5D6D2B8EE58
:10124300F97F0302029EE990F1C2F022C008C009AF
:101253007508C3750910780812034F90F20D120236
:10126300321217FC05100510E990F1CEF078C5791C
:10127300F1E4E9F8C0E090F1BEE0F8A3E0F583887B
:1012830082A3A3D0E0F090F1BEE0F8A3E0F5838859
:1012930082A3A3A374C5F090F1BEE0F8A3E0F583A5
:1012A3008882A3A3A3A3E054E0F0780690F1BEE004
:1012B300F9A3E0F5838982A3A3A3A3A3E0F9E8C07C
:1012C300E090F1BEE0F8A3E0F5838882A3A3A3A393
:1012D300A3D0E0F0D009D0082274F912026D7E0188
:1012E3008A828B83E0C3947B40087E0890F1C474A8
:1012F30000F08A828B83A3A3A3E0A2E2401E8A822A
:101303008B83A3A3A3E06480F08A828B83E024030E
:10131300F090F1C2E08A828B83A3A3F07508017574
:10132300090090F1C0E07808120258E508541F4400
:1013330080F5D6EAF8EBF9E4E9F8C0E090F1BCE017
:10134300F8A3E0F5838882D0E0F0EAC0E090F1BC36
:10135300E0F8A3E0F5838882A3D0E0F074016E6027
:10136300030213EC53E9EF5391FEE59B54FCF5089C
:1013730085089B75090075080175090090F1C1E0A6
:101383007808120258E508541F4480F5D675E10425
:10139300C289C2AF0000000000000000750801759B
:1013A300090090F1C0E07808120258E508541FF5CF
:1013B300D60000000000000075E103D2AF90F1C435
:1013C3007480F08A828B83A3A3A3E0A2E0500D90E4
:1013D300F1CBEAF0A3EBF012124F800A90F1CB7439
:1013E30000F0A37400F0439110EEF97F0202029E15
:1013F30074FA12026DE9FF7E0090F1CBE0F8A3E0EE
:10140300F5838882A3E06F70207E0190F1CEE0F92E
:1014130012156390F1C47440F090F1CD7400F09014
:10142300F1CB7400F0A37400F0EEF97F0102029E89
:10143300C0E074EF1202C3C2AFE5E9F50875E90035
:10144300E59B54FCF50A850A9B750B00E591520850
:10145300E508A2E0501190F1C3E06420700990F117
:10146300C37480F05391FEE508A2E4504390F1C4A5
:10147300E06480703890F1CBE0F8A3E0F9E84970BC
:101483000890F1C47440F0802400000000000000C4
:101493000075080175090090F1C1E078081202583F
:1014A300E508541FF5D6000000000000005391EF3B
:1014B300D2AF7F0402030CC008C00990F1C37420AB
:1014C300F075080175090090F1C1E078081202581F
:1014D300E508541F4480F5D6EAF8EBF9E4E9F8C0CF
:1014E300E090F1BEE0F8A3E0F5838882A3A3D0E007
:1014F300F0EAC0E090F1BEE0F8A3E0F5838882A3B0
:10150300A3A3D0E0F090F1BEE0F8A3E0F5838882D6
:10151300A3A3A3A3E054E0F090F1BEE0F8A3E0F5A9
:10152300838882A3A3A3A3A374FFF0000000000099
:1015330000000075080175090090F1C1E0780812F8
:101543000258E508541FF5D600000000000000759E
:10155300E10453E9FE43910175E102D009D0082269
:10156300E9FAE5A8FCC2AFEAF87900E875F004A44B
:10157300C8ABF075F000A42BFB75F004E9A42BF9BC
:1015830074D228F58274F139F5837400F0EAF8799E
:1015930000E875F004A4C8ABF075F000A42BFB754C
:1015A300F004E9A42BF974D128F58274F139F58399
:1015B3007400F0EAF87900E875F004A4C8ABF0759C
:1015C300F000A42BFB75F004E9A42BF974D328F5E0
:1015D3008274F139F5837400F0A37400F08CA822AF
:1015E300C008C00975080C750900780812034F7C00
:1015F300007D007AD17BF1121A6A0510051053D8C9
:10160300C7C2C475EB0675EC0075ED0075EE007589
:10161300EF0090F2111202327904120E71E975ECA7
:101623001475EE00538CFD75F401538AFE758D011C
:10163300C2EBE59A4410F50885089A75090043EB57
:1016430010D009D00822C0E074F21202C3C2AFC2A4
:10165300EBE58AA2E040030217B6538AFE90F1DD60
:101663007400F00217AA90F1DDE0F87900E875F054
:1016730004A4C8AAF075F000A42AFA75F004E9A43A
:101683002AF974D228F58274F139F583E0700302E4
:1016930017A390F1DDE0F87900E875F004A4C8AA77
:1016A300F075F000A42AFA75F004E9A42AF974D1BC
:1016B30028F58274F139F583E02401FBEBC0E09057
:1016C300F1DDE0F87900E875F004A4C8AAF075F03C
:1016D30000A42AFA75F004E9A42AF974D128F58242
:1016E30074F139F583D0E0F0EBFE90F1DDE0F879A9
:1016F30000E875F004A4C8AAF075F000A42AFA75EE
:10170300F004E9A42AF974D228F58274F139F58337
:10171300E06E60030217A390F1DDE0F87900E8754D
:10172300F004A4C8AAF075F000A42AFA75F004E93D
:10173300A42AF974D128F58274F139F5837400F081
:1017430090F1DDE0F87900E875F004A4C8AAF0751B
:10175300F000A42AFA75F004E9A42AF974D328F551
:101763008274F139F583E0F8A3E0F9E84960319038
:10177300F1DDE0F87900E875F004A4C8AAF075F08B
:1017830000A42AFA75F004E9A42AF974D328F5828F
:1017930074F139F583E0F8A3E0F583888212026BD4
:1017A30090F1DDE02401F090F1DDE0C394035003F8
:1017B300021669E58AA2E15003538AFDE58AA2E293
:1017C3005003538AFBE58AA2E35003538AF7E58A61
:1017D300A2E45003538AEFE58AA2E55003538ADF5C
:1017E300E58AA2E65003538ABFE58AA2E750035372
:1017F3008A7FD2AF7F0102030C74F712026D8A084D
:101803008B098C0A8D0BE5102409F8E2FE08E2FF30
:101813007D007C00A808A909AA0AAB0BE508494A80
:101823004B6004EE4F700579FF0218ECE5A8FDC28A
:10183300AF7C0080010CECC3940340030218DEEC80
:10184300F87900E875F004A4C8AAF075F000A42A9A
:10185300FA75F004E9A42AF974D228F58274F139EF
:10186300F583E070D0E508ECF87900E875F004A49E
:10187300C8AAF075F000A42AFA75F004E9A42AF9BD
:1018830074D228F58274F139F583E508F0ECF87920
:1018930000E875F004A4C8AAF075F000A42AFA754C
:1018A300F004E9A42AF974D128F58274F139F58397
:1018B3007400F0ECF87900E875F004A4C8AAF07598
:1018C300F000A42AFA75F004E9A42AF974D328F5E0
:1018D3008274F139F583EEF0A3EFF08DA8ECC39495
:1018E300035004ECF9800279FF7F0402029E53C681
:1018F300BFE5BEA2E650FA53C6B843BE0475F10075
:1019030075F33C43868043C50B43C222D2E9438629
:101913004043A88422EEC0E078007900801E8A82CA
:101923008B83E0F5C18A828B83A3AA82AB83A2E96E
:1019330050FCC2E9E82401F8E93400F9C3E89CE962
:101943009DA2D265D03340D6D0E0FE2274F31202BA
:101953006DE9FAEA60738A0875090074077808125A
:101963000258E4F50AF50BEAF50C750D00E50C7564
:10197300F03BA4C50CA8F075F000A428F875F03B63
:10198300E50DA428F50DE50D3395E0F50EF50F787B
:1019930008790C1201FDE5C6540778081201E485A5
:1019A300080C85090D850A0E850B0F850C08850D1E
:1019B30009850E0A850F0B90F2157808120210E5BF
:1019C3000C450D450E450F70D67F0802029E74F933
:1019D30012026DE5102407F8E2FE08E2FFEAF8EBD5
:1019E300F98A088B09C3E89CE99D405AEC2EF582DD
:1019F300ED3FF583C3E5829508E58395094047EA02
:101A03002EFAEB3FFBAC82AD83121A57603DEC24F8
:101A1300FF1CED34FFFDEA24FF1AEB34FFFB8C823D
:101A23008D83E08A828B83F080DF8C828D83E08AD2
:101A3300828B83F08C828D83A3AC82AD838A828B6D
:101A430083A3AA82AB83121A5770DFE8FAE9FB7FFC
:101A53000202029E8E088F09E50824FF1EE5093461
:101A6300FFFFE50845092274FA12026DE51024060A
:101A7300F8E2FE08E2FF8A828B838003ECF0A3EE98
:101A8300F8EFF9E824FF1EE934FFFFE84970ED7F22
:041A93000102029EAC
:04000005000000D324
:00000001FF
