:020000040000FA
:1000000002003B0202BD00000080FB120044B90068
:1000100003020035E47961781CB800028004F70916
:10002000D8FC78219000477A40BA00028007E49318
:10003000A3F608DAF91204B312000675D000758130
:10004000BF02000B790122E80300001A000000FF44
:10005000FFFFFF5355434345535300000004402026
:10006000020810013F065B4F666D7D077F6F0168D8
:100070009B060092000000970000000000000001B5
:100080000000008C000000C3E7960809E796080905
:10009000E7960809E79622E4CFC0E0E4CEC0E0E4AA
:1000A000CDC0E0E4CCC0E075F020C3E633F608E64E
:1000B00033F608E633F608E633F6181818EC33FC86
:1000C000ED33FDEE33FEEF33FFC3EC9709ED9709F7
:1000D000EE9709EF97191919400FFFEC97FC09EDFE
:1000E00097FD09EE97FE191906D5F0BEECF709ED5C
:1000F000F709EEF709EFF7191919D0E0FCD0E0FD88
:10010000D0E0FED0E0FF226016080808C6C313C680
:1001100018C613C618C613C618C613C6D5E0EA22F9
:100120007009080808226016181818C6C333C608D4
:10013000C633C608C633C608C633C6D5E0EA22E6CB
:1001400027F60809E637F60809E637F60809E6371C
:10015000F622E7F60809E7F60809E7F60809E7F6E0
:1001600022700422600D18C6C333C608C633C6D534
:10017000E0F41822D083D082CEC0E0EFC0E0C020EF
:100180007808E608C0E0DEFAE473C0D074072FD028
:10019000D0F8D0E0F618DFFAD020D0E0FFD0E0FEB3
:1001A0002274081201748A0C8B0D8C0E8D0F740A48
:1001B000780C12012079217808120152780C790804
:1001C0001200977406780C12012079257808120124
:1001D00052780C7908120097E50C90DF0BF0E50ED1
:1001E000C50D90DF0AF0850D09E50990DF09F07F64
:1001F0000802018A90DF047405F090DF067403F0B2
:10020000A37406F090DF0C74F5F0A37483F0A3746C
:1002100003F090DF117415F090DF147418F0A3143C
:10022000F090DF1C74E9F0A3742AF0A3E4F0A37447
:100230001FF090DF247431F0A37409F090DF2E7466
:10024000C0F01201A190DF2E74C0F075E10475E1D9
:100250000190DF3BE0640170F8C28922740812014A
:1002600074E9FC60558C82AA828A088E097407782A
:1002700008120161F50AF50BEA75F03BA4FAA8F043
:10028000E4288A0CF50D3395E0F50EF50F78087922
:100290000C12013FE5C65407780812010785080CC7
:1002A00085090D850A0E850B0F7929780812013F03
:1002B000E50C450D450E450F70E30201EFC0E0C0AF
:1002C000D0E8C0E0E9C0E07862E67861600AA6D9CB
:1002D000786276007867802C7963E7C396786350FC
:1002E0000C7964E726F8A6D978630680197961E766
:1002F000667009067865E6F8A6D9800A7866E6F899
:10030000A6D978627601D0E0F9D0E0F8D0D0D0E07C
:10031000327402120174E9FF8A088B09ECFE7863DB
:10032000760078617600C289D2A8D2AF53E9EF781F
:1003300064EFF67865A6087866A609EAF87600788C
:1003400066E6F87600786776007862760175E102F5
:100350008006790112025C1EE5E9A2E44017EE7006
:10036000F17867E6640170067EFF760080EA75E149
:1003700004C2A8801675E10453E9EFC2A8A809E6F3
:10038000A2E750077863E614F9800279007F020241
:10039000018AE9FBEA7003790022C289C2A853E905
:1003A000EF75E103A28950FCC2898AD97900800DDA
:1003B000A28950FCC289EB29F8E6F5D909E9C39A6C
:1003C00040EEE5E9A2E450FA53E9EF75E104227545
:1003D000FD3C75FECF43F62075FF0122EEC0E0E53F
:1003E000812404F581E9FEE58124FDF8E7243EF946
:1003F000E7F674012EF8E6243EF9E58124FEF8E7DD
:10040000F674022EFAF8E62435F9E58114F8E7F6D9
:1004100074032EF908E7F6EAF8E664017007E5814F
:10042000F8C64408F6E58124FDF912068115811508
:100430008115811581D0E0FE22C008C009E9F88647
:100440000875090008E624087808120161786CA68E
:100450000808A609090908E7F60908E7F60908E700
:10046000F60908E7F60908E7F6D009D00822C0081F
:10047000C009C00AC00B43FE0353C6BFE5BEA2E6D7
:1004800050FA53C6B843BE04786876080876080860
:10049000760308760179497808120152AA08AB0957
:1004A000AC0AAD0B1201F41203CF75A881D00BD0AA
:1004B0000A80B6E581240CF58112046E794D7878B6
:1004C00012015279681203DC80467848760178750B
:1004D000E66008787376017875760078747600782F
:1004E000777973E7565E600F78737600786E7608DA
:1004F0007A0A796C12039279787851120087401049
:1005000079557878120152787776007E001206B914
:100510007959787812013F7CF0AB81E58114FA2497
:10052000F6F9120311E9787CF6E670030205AFE5EF
:100530008124F5F9120439786FE6F4703175F00A08
:1005400008E6847868F67870E675F00A84E5F07855
:1005500069F67871796AE6F7786B760019191203F3
:10056000DC7E017873760079557878120152786EC6
:10057000E66401700E08E664017877700476018005
:10058000027600786FE66401702518E66402701F39
:10059000787776007E00786B760279681203DC79D2
:1005A0005D78781201527A077B00792D1206CDA270
:1005B0009540030204CA7874067875760178487607
:1005C000007877E660030204DF787676010204DFC4
:1005D0008003000019E970FA22D292D293790212B4
:1005E00005D0C29322C29279051205D0790F120567
:1005F000D0D29279021205D0C29222D292C29379BD
:10060000021205D0D29322EEC0E0EFC0E0E9FF7EF7
:1006100008C292EFA2E05004D2938002C293790301
:100620001205D0EFC313FFD29279031205D01EEE4C
:1006300070DFD0E0FFD0E0FE22F91206071205E5D8
:1006400022798A120647221206071205E51205FBD7
:1006500022EEC0E0E91206752E1206397900120664
:100660006A7980120643D0E0FE2212066E2212063C
:10067000471205D922FE1205D9794412066E74C0BC
:1006800022EEC0E0EFC0E0C0088908AE081205D92C
:10069000794012066A79C012063A7F04EEF8E6F94C
:1006A0001206070E1205E51FEF70F11205FB120589
:1006B000D9120641D008020632790012065179019A
:1006C000120651790212065179030206517C007D0F
:1006D000008012E7F5C109A2E950FCC2E9EC24014F
:1006E0000CED3400FDC3EC9AED9BA2D265D03340F3
:0206F000E22204
:040000050000003BBC
:00000001FF
