:020000040000FA
:1000000002003B0202CF00000080FB120044B90056
:1000100003020035E47973781CB800028004F70904
:10002000D8FC78219000477A52BA00028007E49306
:10003000A3F608DAF91204C512000675D00075811E
:10004000BF02000B790122E80300001A000000FF44
:10005000FFFFFF7A77617463680023232300535501
:100060004343455353004D53475F4F4B000000043B
:100070004020020810013F065B4F666D7D077F6FD1
:1000800001689B060092000000970000000000003D
:1000900000010000008C000000C3E7960809E79605
:1000A0000809E7960809E79622E4CFC0E0E4CEC04D
:1000B000E0E4CDC0E0E4CCC0E075F020C3E633F668
:1000C00008E633F608E633F608E633F6181818ECB7
:1000D00033FCED33FDEE33FEEF33FFC3EC9709ED58
:1000E0009709EE9709EF97191919400FFFEC97FC44
:1000F00009ED97FD09EE97FE191906D5F0BEECF74C
:1001000009EDF709EEF709EFF7191919D0E0FCD05E
:10011000E0FDD0E0FED0E0FF226016080808C6C36C
:1001200013C618C613C618C613C618C613C6D5E01C
:10013000EA227009080808226016181818C6C33386
:10014000C608C633C608C633C608C633C6D5E0EAF5
:1001500022E627F60809E637F60809E637F6080921
:10016000E637F622E7F60809E7F60809E7F6080990
:10017000E7F622700422600D18C6C333C608C633E2
:10018000C6D5E0F41822D083D082CEC0E0EFC0E024
:10019000C0207808E608C0E0DEFAE473C0D0740737
:1001A0002FD0D0F8D0E0F618DFFAD020D0E0FFD082
:1001B000E0FE2274081201868A0C8B0D8C0E8D0FC6
:1001C000740A780C12013279217808120164780CD3
:1001D00079081200A97406780C1201327925780882
:1001E000120164780C79081200A9E50C90DF0BF07D
:1001F000E50EC50D90DF0AF0850D09E50990DF09D0
:10020000F07F0802019C90DF047405F090DF067413
:1002100003F0A37406F090DF0C74F5F0A37483F080
:10022000A37403F090DF117415F090DF147418F0CC
:10023000A314F090DF1C74E9F0A3742AF0A3E4F097
:10024000A3741FF090DF247431F0A37409F090DFE1
:100250002E74C0F01201B390DF2E74C0F075E1046B
:1002600075E10190DF3BE0640170F8C289227408F7
:10027000120186E9FC60558C82AA828A088E097474
:10028000077808120173F50AF50BEA75F03BA4FA3A
:10029000A8F0E4288A0CF50D3395E0F50EF50F78FB
:1002A00008790C120151E5C6540778081201198526
:1002B000080C85090D850A0E850B0F79297808121F
:1002C0000151E50C450D450E450F70E3020201C0DA
:1002D000E0C0D0E8C0E0E9C0E07874E67873600A76
:1002E000A6D9787476007879802C7975E7C39678EA
:1002F00075500C7976E726F8A6D9787506801979B5
:1003000073E7667009067877E6F8A6D9800A7878E8
:10031000E6F8A6D978747601D0E0F9D0E0F8D0D02C
:10032000D0E0327402120186E9FF8A088B09ECFEE4
:100330007875760078737600C289D2A8D2AF53E977
:10034000EF7876EFF67877A6087878A609EAF87657
:10035000007878E6F876007879760078747601751A
:10036000E1028006790112026E1EE5E9A2E440175F
:10037000EE70F17879E6640170067EFF760080EA1F
:1003800075E104C2A8801675E10453E9EFC2A8A87C
:1003900009E6A2E750077875E614F9800279007F34
:1003A0000202019CE9FBEA7003790022C289C2A81B
:1003B00053E9EF75E103A28950FCC2898AD979001B
:1003C000800DA28950FCC289EB29F8E6F5D909E92C
:1003D000C39A40EEE5E9A2E450FA53E9EF75E1046F
:1003E0002275FD3C75FECF43F62075FF0122EEC05D
:1003F000E0E5812404F581E9FEE58124FDF8E724A8
:1004000050F9E7F674012EF8E62450F9E58124FE50
:10041000F8E7F674022EFAF8E62447F9E58114F8B5
:10042000E7F674032EF908E7F6EAF8E664017007C8
:10043000E581F8C64408F6E58124FDF912070515A3
:1004400081158115811581D0E0FE22C008C009E91F
:10045000F8860875090008E6240878081201737800
:100460007EA60808A609090908E7F60908E7F609BB
:1004700008E7F60908E7F60908E7F6D009D00822E8
:10048000C008C009C00AC00B43FE0353C6BFE5BE87
:10049000A2E650FA53C6B843BE04787A76080876C6
:1004A00008087603087601795B7808120164AA08C7
:1004B000AB09AC0AAD0B1202061203E175A881D09C
:1004C0000BD00A80B6E581240CF581120480120756
:1004D000517A067B00792D120778795F788A1201AC
:1004E00064797A1203EE8076785A76017887E6602E
:1004F000087885760178877600788676007889791D
:1005000085E7565E601878857600788076087A07E9
:100510007B0079401207787A0A797E1203A4798ADF
:10052000786312009940107967788A12016478899B
:1005300076007E0012073D7888E6C39401A2D2655A
:10054000D033401A06E6C39403A2D265D033400EDE
:100550007889E6700979031206D578887600796B78
:10056000788A1201517CF0AB81E58114FA24F6F906
:10057000120323E9788EF6E67003020612E5812461
:10058000F5F912044B7A077B00E58124F5F912078F
:10059000787A037B0079341207787881E6F4703139
:1005A00075F00A08E684787AF67882E675F00A84AF
:1005B000E5F0787BF67883797CE6F7787D7601192B
:1005C000191203EE7E01788576007967788A120128
:1005D000647880E66401700E08E66401788970042E
:1005E0007601800276007881E66401702518E66461
:1005F00002701F788976007E00787D7602797A1203
:1006000003EE796F788A1201647A077B00793812D9
:100610000778A29540030204E87886067887760179
:10062000785A76007889E660030204FD78887601BE
:100630007A0179031206A30204FD8003000019E980
:1006400070FA22D292D293790212063AC29322C24F
:1006500092790512063A790F12063AD2927902126D
:10066000063AC29222D292C293790212063AD293E9
:1006700022EEC0E0EFC0E0E9FF7E08C292EFA2E008
:100680005004D2938002C293790312063AEFC31347
:10069000FFD292790312063A1EEE70DFD0E0FFD04F
:1006A000E0FE22EEC0E0EFC0E0E9FFEA1206F92F1B
:1006B0001206BDEEF91206EE1206C580DFF912062B
:1006C0007112064F22798A1206CB22120671120687
:1006D0004F12066522EEC0E0E91206F92E1206BDA1
:1006E00079001206EE79801206C7D0E0FE221206CB
:1006F000F2221206CB12064322FE1206437944125E
:1007000006F274C022EEC0E0EFC0E0C0088908AE77
:100710000812064379401206EE79C01206BE7F0425
:10072000EEF8E6F91206710E12064F1FEF70F11285
:1007300006651206431206C5D00802069C7900120F
:1007400006D579011206D579021206D5790302067B
:10075000D553C6BFE5BEA2E650FA53C6B843BE04A1
:1007600075F10075F33C43868043C50B43C222D22A
:10077000E943864043A884227C007D008012E7F58F
:10078000C109A2E950FCC2E9EC24010CED3400FDE2
:0D079000C3EC9AED9BA2D265D03340E2226B
:040000050000003BBC
:00000001FF
