:020000040000FA
:060000000200AA02033712
:03002B0002093592
:10007B0002091900000080FBE479527822B80002D3
:10008B008004F709D8FC78219000B37A31BA0002CA
:10009B008007E493A3F608DAF912065212007E7574
:1000AB00D0007581BF020083E80300001A00000036
:1000BB00FFFFFFFF0000044020020810013F065B1A
:1000CB004F666D7D077F6F773878717601689B0679
:1000DB00001F00000001000000A2E792D65002F4BE
:1000EB000430F70663F0FF05F0B34003848003840C
:1000FB00F40430D60563F0FF05F022C3E796080938
:10010B00E7960809E7960809E79622E4CFC0E0E4F2
:10011B00CEC0E0E4CDC0E0E4CCC0E075F020E62634
:10012B00F608E633F608E633F608E633F618181841
:10013B00EC33FCED33FDEE33FEEF33FFC3EC9709ED
:10014B00ED9709EE9709EF97191919400FFFEC97E7
:10015B00FC09ED97FD09EE97FE191906D5F0BFECDA
:10016B00F709EDF709EEF709EFF7191919D0E0FCCC
:10017B00D0E0FDD0E0FED0E0FF226016080808C6F4
:10018B00C313C618C613C618C613C618C613C6D5CE
:10019B00E0EA227009080808226016181818C6C36E
:1001AB0033C608C633C608C633C608C633C6D5E041
:1001BB00EA22E627F60809E637F60809E637F608D5
:1001CB0009E637F622E7F60809E7F60809E7F60825
:1001DB0009E7F622700422600D18C6C333C608C6A1
:1001EB0033C6D5E0F41822D083D082CEC0E0EFC066
:1001FB00E0C0207808E608C0E0DEFAE473C0D074F3
:10020B00072FD0D0F8D0E0F618DFFAD020D0E0FFDF
:10021B00D0E0FE2274081201F28A0C8B0D8C0E8D2D
:10022B000F740A780C12019E792178081201D0788C
:10023B000C79081201167406780C12019E79257838
:10024B00081201D0780C7908120116E50C90DF0B1F
:10025B00F0E50EC50D90DF0AF0850D09E50990DF7D
:10026B0009F07F0802020890DF047405F090DF06A6
:10027B007403F0A37406F090DF0C74F5F0A3748391
:10028B00F0A37403F090DF117415F090DF14741861
:10029B00F0A314F090DF1C74E9F0A3742AF0A3E42C
:1002AB00F0A3741FF090DF247431F0A37409F09065
:1002BB00DF2E74C0F012021F90DF2E74C0F075E1B8
:1002CB000475E10190DF3BE0640170F8C289227490
:1002DB00081201F2E96052FA8A088E09740778084D
:1002EB001201DFF50AF50BEA75F03BA4FAA8F0E46E
:1002FB00288A0CF50D3395E0F50EF50F7808790C7F
:10030B001201BDE5C65407780812018585080C85D6
:10031B00090D850A0E850B0F792978081201BDE5A9
:10032B000C450D450E450F70E302026DC0E0C0D0C9
:10033B00E8C0E0E9C0E07853E67852600AA6D978C5
:10034B0053760078588030E6F97854E6C399E6F98D
:10035B00500C7855E629F8A6D9785406801B7852AC
:10036B00E669700B7854067856E6F8A6D9800A78B9
:10037B0057E6F8A6D978537601D0E0F9D0E0F8D05B
:10038B00D0D0E03274021201F289088A09EBFFEC3B
:10039B00FE7854760078527600C289D2A8D2AF5339
:1003AB00E9EF7855A6087856A6097857EFF6EAF8DC
:1003BB0076007857E6F87600785876007853760111
:1003CB0075E102800679011202DA1EE5E9A2E4402A
:1003DB0017EE70F17858E6640170067EFF760080A8
:1003EB00EA75E104C2A8801675E10453E9EFC2A8CF
:1003FB00EFF8E6A2E750077854E614F9800279008B
:10040B007F02020208E9FB7900EA700122C289C26D
:10041B00A853E9EF75E103A28950FCC2898AD98000
:10042B000CA28950FCC289EB29F886D909E9C39A39
:10043B0040EFE5E9A2E450FA53E9EF75E1042278C5
:10044B00007900800508E8700109C3E89AE99B4030
:10045B00F478007900800508E8700109C3E89AE98F
:10046B009B40F478007900800508E8700109C3E827
:10047B009AE99B40F478007900800508E87001093F
:10048B00C3E89AE99B40F478007900800508E8708E
:10049B000109C3E89AE99B40F478007900800508CC
:1004AB00E8700109C3E89AE99B40F42275C9A87565
:1004BB00C9582275FD3E75FECF43F62075FF01C26C
:1004CB00A0C29622E9F4FAD2F0E9A2E030F001B32F
:1004DB009290A2E713F4F8A2E09291E9A2E2E4333E
:1004EB00F8E9A2E713A2E713A2E0928122EEC0E0A3
:1004FB00E5812404F581E9FEF8E6F8C3940AA2D25B
:10050B0065D033500DE58124FDF9743628F8E6F7F4
:10051B008038740A687009E58124FDF879408028D9
:10052B00740C687009E58124FDF87941801A740E0A
:10053B00687009E58124FDF87942800C740F6870AE
:10054B0009E58124FDF87943E7F674012EF8E624DA
:10055B0036F8E58124FEF9E6F774022EFAF8E62464
:10056B002DF9E58114F8E7F6EAF8E664017006A8C0
:10057B0081E64408F6E58124FDF91209E574032EA2
:10058B00F8E6F91204CF1581158115811581D0E09C
:10059B00FE22C008C009E9F8E6F50875090008E66F
:1005AB00240878081201DF785DA60808A6097402F2
:1005BB0029F8795FE6F70809E6F70809E6F708096D
:1005CB00E6F70809E6F7D009D00822C008C009C031
:1005DB000AC00B53C6BFE5BEA2E650FA53C6B843DA
:1005EB00BE0478597600087602087600087601C2B8
:1005FB0081794678081201D0AA08AB09AC0AAD0B79
:10060B001202721204BE75A88143A20175A41F7554
:10061B00A3FFD2AFD2AD439A1043A110D00BD00A97
:10062B0080A47873E6601F7872E6601A78737600A0
:10063B007872760079591204F8786B761C0876007C
:10064B0008760008760022E581240CF5817F0012E4
:10065B0005D6790F1204CF12089278687601807F45
:10066B0079001204CF786476017866760078657627
:10067B00007867E6F97864E6595E60107600785F7B
:10068B0076080876027A0A795D120410784A796B3B
:10069B001201064035786B76000876000876000864
:1006AB007600786776007E0078647600120A32C294
:1006BB0096787006E6C39402401076007873760144
:1006CB0053BEFC43BE024387010012062D7865E63C
:1006DB00C3940BA2D265D03340057600120859792A
:1006EB004E786B1201BD1204B77CF0AB81E581141F
:1006FB00FA24F6F912038FE9786FF67871E6700435
:10070B0078647600786FE6640760030207E0E581A2
:10071B0024F5F912059D75F00A7861E6847859F68F
:10072B007861E675F00A84E5F0785AF6796208E7A5
:10073B00F6786B76000876000876000876007871FC
:10074B0076017860E6F4700F785C760079591204C4
:10075B00F87E01786A7600785FE66401702A08E615
:10076B00640278677020760179041204CF785C7686
:10077B000479591204F8D296786906E6C39402A25A
:10078B00D265D03340027600785FE664027046088B
:10079B00E664027028786776007E00785C760279D2
:1007AB00591204F8786B76140876000876000876F0
:1007BB0000C296786A7601787176008018786B762D
:1007CB0000087600087600087600786776007E00D1
:1007DB00120A32C296A295402C786506786476018F
:1007EB007866760178457600786AE6640170087958
:1007FB00591204F802067CEF700302067C79011291
:10080B0004CF02067C78457601EF70187F01785A89
:10081B00760279591204F8786B761408760008760C
:10082B00000876007866E670030206787845E67075
:10083B0003020678786AE66401600302066B786B44
:10084B00761C087600087600087600020670EEC06B
:10085B00E07E0379011204CF7A207B4E12044A7991
:10086B00001204CF7A207B4E12044A1204B7DEE347
:10087B00120A32C296C2A07E0379FF1202DA120468
:10088B00B7DEF6D0E0FE22EEC0E0EFC0E07F007EE8
:10089B0000120A32801F7868E67002C2A07AE87BE9
:1008AB000312044A7AF07B5512044A7A107B271202
:1008BB00044A1204B7A29540DD0EEE12091040E473
:1008CB007E000FEFC39464A2D265D03340027F0049
:1008DB00EF75F00A1200E47859F6EF75F00A120082
:1008EB00E4E5F008F6087600EF12091140030876EC
:1008FB000279591204F8EF12091040A8D2A0D0E0E7
:10090B00FFD0E0FE22C39403A2D265D03322C0E015
:10091B00C0D0E8C0E0E58A6007758A00787276017E
:10092B00C2EBD0E0F8D0D0D0E032C2C753A1FE3238
:10093B008003000019E970FA22D292D29379021245
:10094B00093BC29322C292790512093BA29340FC48
:10095B00790F12093BD292790212093BC29222D231
:10096B0092C293790212093BD29322EEC0E0EFC000
:10097B00E0E9FF7E08C292EFA2E05004D29380021E
:10098B00C293790312093BEFC313FFD2927903127F
:10099B00093B1EEE70DFD0E0FFD0E0FE22EEC0E0A0
:1009AB00E9FE120944794012097612095012096ABC
:1009BB0012094474C02EF9120976120950790012EB
:1009CB00097612095012096A1209447980120976C4
:1009DB0012095012096AD0E0FE22EEC0E0EFC0E02F
:1009EB00C0088908AE081209447940120976120929
:1009FB005012096A12094479C01209761209507F04
:100A0B0004EEF8E6F912097674012EFE120950DF96
:100A1B00F012096A120944798F12097612095012E1
:100A2B00096AD0080209A179001209A879011209F3
:0C0A3B00A879021209A879031209A82268
:04000005000000AA4D
:00000001FF
