:020000040000FA
:060000000200AA02032326
:03002B0002089A2E
:10007B0002088C00000080FBE479607821B8000254
:10008B008004F709D8FC78219000B37A3FBA0002BC
:10009B008007E493A3F608DAF912066D12007E7559
:1000AB00D0007581BF020083E80300001A00000036
:1000BB00FFFFFFFF7A7761746368007266207265D9
:1000CB006376000000044020020810013F065B4FDE
:1000DB00666D7D077F6F7738787176689B06001F9A
:1000EB0000000001000000C3E7960809E796080925
:1000FB00E7960809E79622E4CFC0E0E4CEC0E0E43F
:10010B00CDC0E0E4CCC0E075F020E626F608E6337F
:10011B00F608E633F608E633F6181818EC33FCED60
:10012B0033FDEE33FEEF33FFC3EC9709ED9709EE8A
:10013B009709EF97191919400FFFEC97FC09ED97E9
:10014B00FD09EE97FE191906D5F0BFECF709EDF78F
:10015B0009EEF709EFF7191919D0E0FCD0E0FDD043
:10016B00E0FED0E0FF226016080808C6C313C618CD
:10017B00C613C618C613C618C613C6D5E0EA227036
:10018B0009080808226016181818C6C333C608C613
:10019B0033C608C633C608C633C6D5E0EA22E627FF
:1001AB00F60809E637F60809E637F60809E637F6E2
:1001BB0022E7F60809E7F60809E7F60809E7F62249
:1001CB00700422600D18C6C333C608C633C6D5E00B
:1001DB00F41822D083D082CEC0E0EFC0E0C02078EC
:1001EB0008E608C0E0DEFAE473C0D074072FD0D065
:1001FB00F8D0E0F618DFFAD020D0E0FFD0E0FE22F6
:10020B0074081201DE8A0C8B0D8C0E8D0F740A781C
:10021B000C12018A792178081201BC780C7908122A
:10022B0001027406780C12018A792578081201BC38
:10023B00780C7908120102E50C90DF0BF0E50EC586
:10024B000D90DF0AF0850D09E50990DF09F07F08B5
:10025B000201F490DF047405F090DF067403F0A341
:10026B007406F090DF0C74F5F0A37483F0A37403A1
:10027B00F090DF117415F090DF147418F0A314F0E4
:10028B0090DF1C74E9F0A3742AF0A3E4F0A3741FAD
:10029B00F090DF247431F0A37409F090DF2E74C05A
:1002AB00F012020B90DF2E74C0F075E10475E101C2
:1002BB0090DF3BE0640170F8C2892274081201DE02
:1002CB00E96052FA8A088E09740778081201CBF597
:1002DB000AF50BEA75F03BA4FAA8F0E4288A0CF5B2
:1002EB000D3395E0F50EF50F7808790C1201A9E5A1
:1002FB00C65407780812017185080C85090D850A0B
:10030B000E850B0F792978081201A9E50C450D45CF
:10031B000E450F70E3020259C0E0C0D0E8C0E0E91F
:10032B00C0E07861E67860600AA6D97861760078DB
:10033B00668030E6F97862E6C399E6F9500C78638B
:10034B00E629F8A6D9786206801B7860E669700BFF
:10035B007862067864E6F8A6D9800A7865E6F8A68E
:10036B00D978617601D0E0F9D0E0F8D0D0D0E03286
:10037B0074021201DE89088A09EBFFECFE786276C3
:10038B000078607600C289D2A8D2AF53E9EF7863C8
:10039B00A6087864A6097865EFF6EAF87600786522
:1003AB00E6F87600786676007861760175E1028072
:1003BB000679011202C61EE5E9A2E44017EE70F1C0
:1003CB007866E6640170067EFF760080EA75E104CC
:1003DB00C2A8801675E10453E9EFC2A8EFF8E6A2B4
:1003EB00E750077862E614F9800279007F02020178
:1003FB00F4E9FB7900EA700122C289C2A853E9EF44
:10040B0075E103A28950FCC2898AD9800CA289505C
:10041B00FCC289EB29F886D909E9C39A40EFE5E9D3
:10042B00A2E450FA53E9EF75E104227800790080D9
:10043B000508E8700109C3E89AE99B40F478007954
:10044B0000800508E8700109C3E89AE99B40F4783D
:10045B00007900800508E8700109C3E89AE99B4020
:10046B00F478007900800508E8700109C3E89AE97F
:10047B009B40F478007900800508E8700109C3E817
:10048B009AE99B40F478007900800508E87001092F
:10049B00C3E89AE99B40F422E9F4FAD2F0E9A2E02E
:1004AB0030F001B39290A2E713F4F8A2E09291E935
:1004BB00A2E2E433F8E9A2E713A2E713A2E09281E8
:1004CB00221209E179001204A32275C90043C9085D
:1004DB002275C9A875C9582275FD3E75FECF43F626
:1004EB002075FF01C2A0D292D293C29622EEC0E039
:1004FB00E5812404F581E9FEF8E6F8C3940AA2D25B
:10050B0065D033500DE58124FDF9744528F8E6F7E5
:10051B008038740A687009E58124FDF8794F8028CA
:10052B00740C687009E58124FDF87950801A740EFB
:10053B00687009E58124FDF87951800C740F68709F
:10054B0009E58124FDF87952E7F674012EF8E624CB
:10055B0045F8E58124FEF9E6F774022EF8E6243C13
:10056B00F8E6F809F7A8817004760880027600197E
:10057B00191209ED74032EF8E6F91204A31581156F
:10058B008115811581D0E0FE22C008C009E9F8E68B
:10059B00F50875090008E6240878081201CB786B7A
:1005AB00A60808A609740229F8796DE6F70809E68A
:1005BB00F70809E6F70809E6F70809E6F70809E678
:1005CB00F7D009D00822EEC0E0E5812404F581E9DB
:1005DB00FEE58124FDF875F00AEE842445F9E7F673
:1005EB00EE75F00A84E5F02445F8E58124FEF9E682
:1005FB00F7E58114F87600087600191209ED7901F8
:10060B00020585C008C009C00AC00B53C6BFE5BEB2
:10061B00A2E650FA53C6B843BE0478677600087654
:10062B0001087600087601795478081201BCAA08F3
:10063B00AB09AC0AAD0B12025E1204E375A8814341
:10064B008D20438C0243A20175A41F75A3FFD2AF6B
:10065B00D2AD439A1043A1101209E1D00BD00A027C
:10066B0005CCE581240CF58112060E79011204A349
:10067B00120A2C1204D57A067B00792D120A5378B4
:10068B00767601806F76007875E660167873E66093
:10069B00117600786D7608080876017A0A796B1264
:1006AB0003FC785879791200F24037787976000894
:1006BB0076000876000876007875760078777600F5
:1006CB00787376001204CCC296787E06E6C3940249
:1006DB00401076007880760153BEFC43BE02438700
:1006EB0001007874E6C3940BA2D265D03340057633
:1006FB0000120855795C78791201A91204DC7A088A
:10070B007B007934120A537CF0AB81E58114FA2417
:10071B00F6F912037BE9787DF6787FE6700478733F
:10072B007600787DE6700302081C7A017B00E6F9FF
:10073B00120A53E58124F5F91205947A0A7B00E538
:10074B008124F5F9120A53786EE6A2E04003020801
:10075B001C75F00A0808E6847867F67870E675F081
:10076B000A84E5F07868F678717969E6F778797636
:10077B0000087600087600087600787F7601786F9F
:10078B00E6F47011786A760019191204F878777606
:10079B000178787600786DE66401701F0808E664CE
:1007AB00017875700F7601786A760479671204F810
:1007BB00D2968007760079001204A3786DE6640266
:1007CB00704F0808E66401702A78757600787776A2
:1007DB0000786A760279671204F8787976140876CD
:1007EB0000087600087600C29678787601787F76D6
:1007FB0000801E787976000876000876000876006F
:10080B007875760078777600787876001204CCC20B
:10081B0096A29578745003020690067877E66401E9
:10082B007007787376010206927878E66401700798
:10083B0079671204F8800579011205D17879761D54
:10084B0008760008760008020690EEC0E07E037979
:10085B00011204A37A207B4E12043679001204A3F2
:10086B007A207B4E1204361204DCDEE31204CCC277
:10087B0096C2A07E0379FF1202C61204DCDEF6805C
:10088B00FEC0E0E58A6003758A00C2EBD0E032C29D
:10089B00C753A1FE32D293D2920000000000000099
:1008AB000000000000D293000000000000000000D8
:1008BB00000000C2930000000000000000000000D8
:1008CB0000C29222C2920000000000000000000053
:1008DB000000000000000000000000000000C293B8
:1008EB0000000000000000000000000000000000FD
:1008FB000000000000000000D29200000000000089
:10090B0000000000000000000000000000000000DC
:10091B000000000000000000000000000000D29367
:10092B00000000000000000000000000C292C29313
:10093B00227808C292E9A2E05004D2938002C293BB
:10094B00000000000000000000000000000000009C
:10095B00000000000000000000000000000000008C
:10096B00000000000000000000000000000000007C
:10097B00D292C313F9000000000000000000000039
:10098B00000000000000000000000000000000005C
:10099B00000000000000000000000000000000004C
:1009AB00000000000018E8708AC2920000000000EE
:1009BB0000000000000000A29340FC0000000000BB
:1009CB0000000000000000D29200000000000000B8
:1009DB000000000000221208A0798012093C1208C6
:1009EB00CF22EEC0E0EFC0E0E9FE1208A079401282
:1009FB00093C1208CF1208A079C012093C7F04EE03
:100A0B00F8E6F912093C74012EFEDFF31208CF123F
:100A1B0008A0798B12093C1208CFD0E0FFD0E0FE82
:100A2B002253C6BFE5BEA2E650FA53C6B843BE0476
:100A3B0075F10075F33C43868043C50B43C222D24C
:100A4B00E943864043A884227C007D00801187C146
:100A5B00740129F9A2E950FCC2E90CEC70010DC339
:0C0A6B00EC9AED9BA2D265D03340E32250
:04000005000000AA4D
:00000001FF
