:020000040000FA
:1000000002003B0202AC00000080FB120044B90079
:1000100003020035E479507818B800028004F7092B
:10002000D8FC78219000477A2FBA00028007E49329
:10003000A3F608DAF91204A212000675D000758141
:10004000BF02000B790122E80300001A000000FF44
:10005000FFFFFF0000044020020810013F065B4F35
:10006000666D7D077F6F689B0600010000006500DC
:10007000000000000000C3E7960809E7960809E7BA
:10008000960809E79622E4CFC0E0E4CEC0E0E4CDD4
:10009000C0E0E4CCC0E075F020C3E633F608E633F8
:1000A000F608E633F608E633F6181818EC33FCEDDC
:1000B00033FDEE33FEEF33FFC3EC9709ED9709EE06
:1000C0009709EF97191919400FFFEC97FC09ED9765
:1000D000FD09EE97FE191906D5F0BEECF709EDF70C
:1000E00009EEF709EFF7191919D0E0FCD0E0FDD0BF
:1000F000E0FED0E0FF226016080808C6C313C61849
:10010000C613C618C613C618C613C6D5E0EA2270B1
:1001100009080808226016181818C6C333C608C68E
:1001200033C608C633C608C633C6D5E0EA22E6277A
:10013000F60809E637F60809E637F60809E637F65D
:1001400022E7F60809E7F60809E7F60809E7F622C4
:10015000700422600D18C6C333C608C633C6D5E086
:10016000F41822D083D082CEC0E0EFC0E0C0207867
:1001700008E608C0E0DEFAE473C0D074072FD0D0E0
:10018000F8D0E0F618DFFAD020D0E0FFD0E0FE2271
:1001900074081201638A0C8B0D8C0E8D0F740A7813
:1001A0000C12010F79217808120141780C7908129C
:1001B00000867406780C12010F7925780812014127
:1001C000780C7908120086E50C90DF0BF0E50EC57F
:1001D0000D90DF0AF0850D09E50990DF09F07F0831
:1001E00002017990DF047405F090DF067403F0A338
:1001F0007406F090DF0C74F5F0A37483F0A374031D
:10020000F090DF117415F090DF147418F0A314F05F
:1002100090DF1C74E9F0A3742AF0A3E4F0A3741F28
:10022000F090DF247431F0A37409F090DF2E74C0D5
:10023000F012019090DF2E74C0F075E10475E101B9
:1002400090DF3BE0640170F8C289227408120163F8
:10025000E9FC60558C82AA828A088E0974077808A6
:10026000120150F50AF50BEA75F03BA4FAA8F0E488
:10027000288A0CF50D3395E0F50EF50F7808790C0A
:1002800012012EE5C6540778081200F685080C8581
:10029000090D850A0E850B0F7929780812012EE5C4
:1002A0000C450D450E450F70E30201DEC0E0C0D0E5
:1002B000E8C0E0E9C0E07851E67850600AA6D97855
:1002C0005176007856802C7952E7C3967852500CBC
:1002D0007953E726F8A6D978520680197950E7664F
:1002E0007009067854E6F8A6D9800A7855E6F8A68B
:1002F000D978517601D0E0F9D0E0F8D0D0D0E03212
:100300007402120163E9FF8A088B09ECFE785276C9
:100310000078507600C289D2A8D2AF53E9EF785363
:10032000EFF67854A6087855A609EAF876007855CD
:10033000E6F87600785676007851760175E102800D
:1003400006790112024B1EE5E9A2E44017EE70F1B6
:100350007856E6640170067EFF760080EA75E10457
:10036000C2A8801675E10453E9EFC2A8A809E6A265
:10037000E750077852E614F9800279007F02020103
:1003800079E9FBEA7003790022C289C2A853E9EF38
:1003900075E103A28950FCC2898AD97900800DA237
:1003A0008950FCC289EB29F8E6F5D909E9C39A40DE
:1003B000EEE5E9A2E450FA53E9EF75E1042275FD98
:1003C0003C75FECF43F62075FF0122EEC0E0E581CB
:1003D0002404F581E9FEE58124FDF8E72436F9E7F8
:1003E000F674012EF8E62436F9E58124FEF8E7F6E6
:1003F00074022EFAF8E6242DF9E58114F8E7F67474
:10040000032EF908E7F6EAF8E664017007E581F8DB
:10041000C64408F6E58124FDF91205D6158115813B
:1004200015811581D0E0FE22C008C009E9F88608D0
:1004300075090008E624087808120150785BA608C0
:1004400008A609090908E7F60908E7F60908E7F622
:100450000908E7F60908E7F6D009D00822C008C065
:1004600009C00AC00B43FE0353C6BFE5BEA2E65057
:10047000FA53C6B843BE0479407808120141AA086D
:10048000AB09AC0AAD0B1201E31203BE785776003C
:1004900008760108760108760275A881D00BD00A8B
:1004A00080B6E581240CF58112045D12062E794494
:1004B000786312012E7CF0AB81E58114FA24F6F901
:1004C000120300E97867F6E66053E58124F5F91236
:1004D000042875F00A785FE6847857F6785FE67549
:1004E000F00A84E5F07858F678607959E6F7785A9A
:1004F000760119191203CB785EE66401700A18E6DA
:100500006401700B78627601785EE66401700E78A3
:100510005DE6640270077862760012062EA295509E
:100520000A7A0AE58124F5F9120381796378481281
:10053000007650030204AE794C7863120141786270
:1005400076000204AB8003000019E970FA22D2920F
:10055000D2937902120545C29322C29279051205FF
:10056000457905120545D2927902120545C29222BB
:10057000D292C2937902120545D29322EEC0E0EFE7
:10058000C0E0E9FF7E08C292EFA2E05004D293805F
:1005900002C2937903120545EFC313FFD292790388
:1005A0001205451EEE70DF8003120611D0E0FFD069
:1005B000E0FE22EEC0E0EFC0E0E9FEEAFF1206181E
:1005C00074C02E1205D1EF6004798F80027980808B
:1005D000D8F912062122EEC0E0EFC0E0C008890879
:1005E000AE0812061879C012060A7F04EEF8E6F982
:1005F00012057C0E12055A1FEF70F11205701205DC
:100600004E798F120611D00880A212057C12055A6D
:100610002212060A1205702212054E794012062196
:100620002212057C12055A12057012054E227A001C
:1006300079001205B37A0079011205B37A007902C4
:0A0640001205B37A0079030205B336
:040000050000003BBC
:00000001FF
