:020000040000FA
:1000000002003B0202D700000080FB120044B9004E
:1000100003020035E47959781EB800028004F7091C
:10002000D8FC78219000477A38BA00028007E49320
:10003000A3F608DAF912052F12000675D0007581B3
:10004000BF02000B790122E80300001A000000FF44
:10005000FFFFFF0000044020020810013F065B4F35
:10006000666D7D077F6F01689B0600010000000040
:10007000000000140000001C0000001F000000A28F
:10008000E792D65002F40430F70663F0FF05F0B3B0
:10009000400384800384F40430D60563F0FF05F048
:1000A00022C3E7960809E7960809E7960809E79644
:1000B00022E4CFC0E0E4CEC0E0E4CDC0E0E4CCC0B8
:1000C000E075F020C3E633F608E633F608E633F6CB
:1000D00008E633F6181818EC33FCED33FDEE33FE6A
:1000E000EF33FFC3EC9709ED9709EE9709EF9719E6
:1000F0001919400FFFEC97FC09ED97FD09EE97FEEB
:10010000191906D5F0BEECF709EDF709EEF709EF7E
:10011000F7191919D0E0FCD0E0FDD0E0FED0E0FFE7
:10012000226016080808C6C313C618C613C618C628
:1001300013C618C613C6D5E0EA22700908080822BB
:100140006016181818C6C333C608C633C608C633A7
:10015000C608C633C6D5E0EA22E627F60809E63720
:10016000F60809E637F60809E637F622E7F6080941
:10017000E7F60809E7F60809E7F622700422600DA1
:1001800018C6C333C608C633C6D5E0F41822D083D8
:10019000D082CEC0E0EFC0E0C0207808E608C0E022
:1001A000DEFAE473C0D074072FD0D0F8D0E0F61890
:1001B000DFFAD020D0E0FFD0E0FE22740812018EDA
:1001C0008A0C8B0D8C0E8D0F740A780C12013A7903
:1001D00021780812016C780C79081200B174067845
:1001E0000C12013A7925780812016C780C79081202
:1001F00000B1E50C90DF0BF0E50EC50D90DF0AF0C5
:10020000850D09E50990DF09F07F080201A490DF60
:10021000047405F090DF067403F0A37406F090DF19
:100220000C74F5F0A37483F0A37403F090DF1174E1
:1002300015F090DF147418F0A314F090DF1C74E92B
:10024000F0A3742AF0A3E4F0A3741FF090DF2474E9
:1002500031F0A37409F090DF2E74C0F01201BB904E
:10026000DF2E74C0F075E10475E10190DF3BE064BE
:100270000170F8C28922740812018EE9FC60558C65
:1002800082AA828A088E097407780812017BF50A0F
:10029000F50BEA75F03BA4FAA8F0E4288A0CF50DFA
:1002A0003395E0F50EF50F7808790C120159E5C683
:1002B0005407780812012185080C85090D850A0E5E
:1002C000850B0F79297808120159E50C450D450E6B
:1002D000450F70E3020209C0E0C0D0E8C0E0E9C009
:1002E000E0785AE67859600AA6D9785A7600785F9D
:1002F000802C795BE7C396785B500C795CE726F835
:10030000A6D9785B0680197959E766700906785D89
:10031000E6F8A6D9800A785EE6F8A6D9785A76017A
:10032000D0E0F9D0E0F8D0D0D0E032740212018EE3
:10033000E9FF8A088B09ECFE785B76007859760035
:10034000C289D2A8D2AF53E9EF785CEFF6785DA608
:1003500008785EA609EAF87600785EE6F876007816
:100360005F7600785A760175E10280067901120203
:10037000761EE5E9A2E44017EE70F1785FE66401CD
:1003800070067EFF760080EA75E104C2A8801675CB
:10039000E10453E9EFC2A8A809E6A2E75007785B99
:1003A000E614F9800279007F020201A4E9FBEA70F9
:1003B00003790022C289C2A853E9EF75E103A2893B
:1003C00050FCC2898AD97900800DA28950FCC2896B
:1003D000EB29F8E6F5D909E9C39A40EEE5E9A2E48C
:1003E00050FA53E9EF75E104227800790080031296
:1003F000043AC3E89AE99B40F6780079008003123A
:10040000043AC3E89AE99B40F67800790080031229
:10041000043AC3E89AE99B40F67800790080031219
:10042000043AC3E89AE99B40F67800790080031209
:10043000043AC3E89AE99B40F622E8240108E9342B
:1004400000F92275C90043C9082275FD3C75FECF2D
:1004500043F62075FF01C2A0C29622EEC0E0E581FE
:100460002404F581E9FEE58124FDF8E72436F9E767
:10047000F674012EF8E62436F9E58124FEF8E7F655
:1004800074022EFAF8E6242DF9E58114F8E7F674E3
:10049000032EF908E7F6EAF8E664017007E581F84B
:1004A000C64408F6E58124FDF912088A15811581F4
:1004B00015811581D0E0FE22C008C009E9F8860840
:1004C00075090008E62408780812017B7864A608FC
:1004D00008A609090908E7F60908E7F60908E7F692
:1004E0000908E7F60908E7F6D009D00822C008C0D5
:1004F00009C00AC00B53C6BFE5BEA2E650FA53C6F8
:10050000B843BE0478607600087602087600087664
:10051000017941780812016CAA08AB09AC0AAD0B4D
:1005200012020E12044A75A881D00BD00A80B9E5D8
:1005300081240CF5817F001204ED12044312074060
:10054000786F76017945787112015975C9A875C916
:10055000587CF0AB81E58114FA24F6F912032BE9FB
:100560007875F67876E67004786B76007875E664D0
:10057000076003020621E58124F5F91204B87949E0
:10058000787112016C787676017867E6F4702875D8
:10059000F00A08E6847860F67868E675F00A84E583
:1005A000F07861F6796908E7F60876007960120458
:1005B0005B7E01787076007866E66401702208E65A
:1005C0006402786E700F76017863760479601204A5
:1005D0005BD296800B760078637600796012045BBC
:1005E0007866E66402703A08E664027022786E76F5
:1005F000007E0078637602796012045B794D787131
:1006000012016CC296787076017876760080127945
:1006100049787112016C786E76007E001208CDC2A6
:1006200096A2955029786C06786B7601786D7601E4
:10063000784076007870E664017007796012045B98
:100640008052EF604F7A017903120830804678407B
:100650007601EF70127F0178617602796012045B97
:10066000794D787112016C786DE660247840E6600F
:100670001F7870E6640170097951787112016C80FD
:10068000077A007903120830786B7601786D76006E
:10069000786C7600746EF9786BE6C9F8E9565E609E
:1006A00012786B7600786676080876027A0A7964A2
:1006B0001203AC797178551200A14016794978710E
:1006C00012016C786E76007E00786B76001208CD91
:1006D000C296786CE6C3940BA2D265D03350030265
:1006E0000544760075C9A875C95812072A7A0112FF
:1006F000072675C9A875C9587A0012072612072A55
:1007000075C9A875C9581208CDC296C2A0750864EB
:10071000794012027675C9A875C9581508E50870A0
:100720000302054480EA120735227A011207357A5E
:100730000012073522790312083079E81202762276
:10074000EEC0E0EFC0E07F007E001208CD801B7895
:100750006FE67002C2A07AE87B031203E97A807B1D
:10076000381203E975C9A875C958A29550E10EEE73
:100770001207BA40E87E000FEFC39464A2D265D09E
:100780003340027F00EF75F00A12007F7860F6EFC9
:1007900075F00A12007FE5F008F6087600EF120700
:1007A000BB4003087602796012045BEF1207BA407F
:1007B000ACD2A0D0E0FFD0E0FE22C39403A2D26569
:1007C000D033228003000019E970FA22D292D2932A
:1007D00079021207C3C29322C29279051207C3A2FB
:1007E0009340FC790F1207C3D29279021207C3C259
:1007F0009222D292C29379021207C3D29322EEC000
:10080000E0EFC0E0E9FF7E08C292EFA2E05004D220
:10081000938002C29379031207C3EFC313FFD292EE
:1008200079031207C31EEE70DFD0E0FFD0E0FE2296
:10083000EEC0E0EFC0E0E9FFEAFE1207CC79441217
:10084000088674C02F120852EEF912088612085A50
:1008500080D7F91207FE1207D822798F120860227A
:100860001207FE1207D81207F222EEC0E0E9FE12CC
:1008700008BD74C02E1208527900120886798012C1
:10088000085CD0E0FE221208C622EEC0E0EFC0E015
:10089000C0088908AE081208BD79C01208537F0449
:1008A000EEF8E6F91207FE0E1207D81FEF70F112EC
:1008B00007F21207CC12085AD0080208291207CCF6
:1008C00079401208C6221208601207CC2279001261
:1008D000086A790112086A790212086A7903020823
:0108E0006AAD
:040000050000003BBC
:00000001FF
