:020000040000FA
:060000000200AA02031B2E
:03002B000208B612
:10007B0002089A00000080FBE479587822B800024D
:10008B008004F709D8FC78219000B37A37BA0002C4
:10009B008007E493A3F608DAF912068812007E753E
:1000AB00D0007581BF020083E80300001A00000036
:1000BB00FFFFFFFF7A776174636800000004402044
:1000CB00020810013F065B4F666D7D077F6F773827
:1000DB00787176689B06001F00000001000000C3CA
:1000EB00E7960809E7960809E7960809E79622E4D8
:1000FB00CFC0E0E4CEC0E0E4CDC0E0E4CCC0E0751E
:10010B00F020E626F608E633F608E633F608E63383
:10011B00F6181818EC33FCED33FDEE33FEEF33FF1E
:10012B00C3EC9709ED9709EE9709EF971919194049
:10013B000FFFEC97FC09ED97FD09EE97FE191906D9
:10014B00D5F0BFECF709EDF709EEF709EFF7191941
:10015B0019D0E0FCD0E0FDD0E0FED0E0FF2260162D
:10016B00080808C6C313C618C613C618C613C61884
:10017B00C613C6D5E0EA22700908080822601618D3
:10018B001818C6C333C608C633C608C633C608C656
:10019B0033C6D5E0EA22E627F60809E637F6080962
:1001AB00E637F60809E637F622E7F60809E7F60818
:1001BB0009E7F60809E7F622700422600D18C6C39A
:1001CB0033C608C633C6D5E0F41822D083D082CE0E
:1001DB00C0E0EFC0E0C0207808E608C0E0DEFAE43B
:1001EB0073C0D074072FD0D0F8D0E0F618DFFAD058
:1001FB0020D0E0FFD0E0FE2274081201D68A0C8BCF
:10020B000D8C0E8D0F740A780C12018279217808EF
:10021B001201B4780C79081200FA7406780C1201EA
:10022B0082792578081201B4780C79081200FAE566
:10023B000C90DF0BF0E50EC50D90DF0AF0850D0974
:10024B00E50990DF09F07F080201EC90DF047405EB
:10025B00F090DF067403F0A37406F090DF0C74F5D6
:10026B00F0A37483F0A37403F090DF117415F09076
:10027B00DF147418F0A314F090DF1C74E9F0A3746E
:10028B002AF0A3E4F0A3741FF090DF247431F0A3E1
:10029B007409F090DF2E74C0F012020390DF2E74FD
:1002AB00C0F075E10475E10190DF3BE0640170F88B
:1002BB00C2892274081201D6E96052FA8A088E09A3
:1002CB00740778081201C3F50AF50BEA75F03BA425
:1002DB00FAA8F0E4288A0CF50D3395E0F50EF50F2E
:1002EB007808790C1201A1E5C65407780812016948
:1002FB0085080C85090D850A0E850B0F7929780861
:10030B001201A1E50C450D450E450F70E30202519C
:10031B00C0E0C0D0E8C0E0E9C0E07859E6785860AA
:10032B000AA6D978597600785E8030E6F9785AE6D5
:10033B00C399E6F9500C785BE629F8A6D9785A06EA
:10034B00801B7858E669700B785A06785CE6F8A63D
:10035B00D9800A785DE6F8A6D978597601D0E0F90C
:10036B00D0E0F8D0D0D0E03274021201D689088ADE
:10037B0009EBFFECFE785A760078587600C289D2EA
:10038B00A8D2AF53E9EF785BA608785CA609785D35
:10039B00EFF6EAF87600785DE6F87600785E7600A0
:1003AB007859760175E102800679011202BE1EE5CD
:1003BB00E9A2E44017EE70F1785EE6640170067E08
:1003CB00FF760080EA75E104C2A8801675E104533C
:1003DB00E9EFC2A8EFF8E6A2E75007785AE614F95E
:1003EB00800279007F020201ECE9FB7900EA7001DF
:1003FB0022C289C2A853E9EF75E103A28950FCC25E
:10040B00898AD9800CA28950FCC289EB29F886D93C
:10041B0009E9C39A40EFE5E9A2E450FA53E9EF7515
:10042B00E1042278007900800508E8700109C3E82F
:10043B009AE99B40F478007900800508E87001097F
:10044B00C3E89AE99B40F478007900800508E870CE
:10045B000109C3E89AE99B40F4780079008005080C
:10046B00E8700109C3E89AE99B40F47800790080B1
:10047B000508E8700109C3E89AE99B40F478007914
:10048B0000800508E8700109C3E89AE99B40F42253
:10049B00E9F4FAD2F0E9A2E030F001B39290A2E7CE
:1004AB0013F4F8A2E09291E9A2E2E433F8E9A2E7AF
:1004BB0013A2E713A2E09281221209D87900120449
:1004CB009B2275C90043C9082275C9A875C9582252
:1004DB0075FD3E75FECF43F62075FF01C2A0C29697
:1004EB0022EEC0E0E5812404F581E9FEF8E6F8C3CD
:1004FB00940AA2D265D033500DE58124FDF9743DE9
:10050B0028F8E6F78038740A687009E58124FDF84D
:10051B0079478028740C687009E58124FDF87948C7
:10052B00801A740E687009E58124FDF87949800CF6
:10053B00740F687009E58124FDF8794AE7F67401B8
:10054B002EF8E6243DF8E58124FEF9E6F774022E39
:10055B00FAF8E62434F9E58114F8E7F6EAF8E664EC
:10056B00017006A881E64408F6E58124FDF912091D
:10057B009D74032EF8E6F912049B158115811581E4
:10058B001581D0E0FE22C008C009E9F8E6F5087530
:10059B00090008E6240878081201C37863A6080846
:1005AB00A609740229F87965E6F70809E6F7080940
:1005BB00E6F70809E6F70809E6F70809E6F7D009B0
:1005CB00D00822EEC0E0E5812404F581E9FEE58147
:1005DB0024FDF875F00AEE84243DF9E7F6EE75F08C
:1005EB000A84E5F0243DF8E58124FEF9E6F7E58180
:1005FB0014F876000876001912099D79010205821C
:10060B00C008C009C00AC00B53C6BFE5BEA2E65066
:10061B00FA53C6B843BE04785F76000876020876B4
:10062B0000087601C281794C78081201B4AA08AB94
:10063B0009AC0AAD0B1202561204DB75A88143A25A
:10064B000175A41F75A3FFD2AFD2AD439A1043A17E
:10065B0010D00BD00A0205C97879E6601F7878E6CE
:10066B00601A7879760078787600795F1204EC78E6
:10067B0071761C08760008760008760022E5812446
:10068B000CF58112060B790112049B1209ED120471
:10069B00CD7A067B00792D120A14786E7601807262
:1006AB007600786DE66016786BE6601176007865FB
:1006BB007608080876027A0A79631203F47850797F
:1006CB00711200EA403778717600087600087600E0
:1006DB00087600786D7600786F7600786B7600126E
:1006EB0004C4C296787606E6C3940240107600786E
:1006FB0079760153BEFC43BE0243870100120663A9
:10070B00786CE6C3940BA2D265D033400576001209
:10071B000861795478711201A11204D47CF4AB8175
:10072B00E58114FA24F6F9120373E97875F67877F4
:10073B00E67004786B76007875E67003020828E59E
:10074B008124F5F91205917A087B00E58124F5F9EE
:10075B00120A147866E6A2E0400302082875F00A34
:10076B000808E684785FF67868E675F00A84E5F0A9
:10077B007860F678697961E6F7787176000876002B
:10078B00087600087600787776017867E6F47011C2
:10079B007862760019191204EC786F76017870760E
:1007AB00007865E66401701F0808E66402786D70D6
:1007BB000F760178627604795F1204ECD29680078B
:1007CB007600790012049B7865E66402704F080886
:1007DB00E66402702A786D7600786F760078627620
:1007EB0002795F1204EC78717614087600087600B3
:1007FB00087600C2967870760178777600801E783E
:10080B00717600087600087600087600786D760021
:10081B00786F7600787076001204C4C296A2957831
:10082B006C50030206AB06786FE664017007786BB9
:10083B0076010206AD7870E664017007795F1204E9
:10084B00EC800579021205CE7871761D08760008CA
:10085B007600080206ABEEC0E07E03790112049B22
:10086B007A207B4E12042E790012049B7A207B4E49
:10087B0012042E1204D4DEE31204C4C296C2A07E6C
:10088B000379FF1202BE1204D4DEF6D0E0FE22C0C2
:10089B00E0C0D0E8C0E0E58A6007758A007878761A
:1008AB0001C2EBD0E0F8D0D0D0E032C2C753A1FEEA
:1008BB00328003000019E970FA22D292D2937902A6
:1008CB001208BCC29322C29279051208BCA29340B3
:1008DB00FCD29279021208BCC29222D292C29379B4
:1008EB00021208BCD29322EEC0E0EFC0E0E9FF7E1B
:1008FB0008C292EFA2E05004D2938002C293790314
:10090B001208BCEFC313FFD29279031208BC1EEE80
:10091B0070DF0209D1EEC0E0EFC0E0E9FFEAFE12A2
:10092B0008C579441208F21208D11208E61208C55C
:10093B0074C02FF91208F21208D1EEF91208F21254
:10094B0008D11208E61208C5798F1208F21208D1E5
:10095B001208E68071EEC0E0E9FE1208C57940127C
:10096B0008F21208D11208E61208C574C02EF9124B
:10097B0008F21208D179001208F21208D11208E617
:10098B001208C579801208F21208D11208E6D0E0DD
:10099B00FE22EEC0E0EFC0E0E9FEF8E6FA790012C5
:1009AB00092074012EFEF8E6FA7901120920740170
:1009BB002EFEF8E6FA790212092074012EFEF8E6F3
:1009CB00FA7903120920D0E0FFD0E0FE2279001261
:1009DB000960790112096079021209607903120921
:1009EB00602253C6BFE5BEA2E650FA53C6B843BE5B
:1009FB000475F10075F33C43868043C50B43C2225B
:100A0B00D2E943864043A884227C007D0080118775
:100A1B00C1740129F9A2E950FCC2E90CEC70010D7B
:0D0A2B00C3EC9AED9BA2D265D03340E322CC
:04000005000000AA4D
:00000001FF
