:020000040000FA
:060000000200AA02032326
:03002B0002091CAB
:10007B0002090000000080FBE479607822B80002DE
:10008B008004F709D8FC78219000B37A3FBA0002BC
:10009B008007E493A3F608DAF912068912007E753D
:1000AB00D0007581BF020083E80300001A00000036
:1000BB00FFFFFFFF7A7761746368006D7974696D78
:1000CB0065000000044020020810013F065B4F66EC
:1000DB006D7D077F6F773878717601689B06001FFF
:1000EB0000000001000000C3E7960809E796080925
:1000FB00E7960809E79622E4CFC0E0E4CEC0E0E43F
:10010B00CDC0E0E4CCC0E075F020E626F608E6337F
:10011B00F608E633F608E633F6181818EC33FCED60
:10012B0033FDEE33FEEF33FFC3EC9709ED9709EE8A
:10013B009709EF97191919400FFFEC97FC09ED97E9
:10014B00FD09EE97FE191906D5F0BFECF709EDF78F
:10015B0009EEF709EFF7191919D0E0FCD0E0FDD043
:10016B00E0FED0E0FF226016080808C6C313C618CD
:10017B00C613C618C613C618C613C6D5E0EA227036
:10018B0009080808226016181818C6C333C608C613
:10019B0033C608C633C608C633C6D5E0EA22E627FF
:1001AB00F60809E637F60809E637F60809E637F6E2
:1001BB0022E7F60809E7F60809E7F60809E7F62249
:1001CB00700422600D18C6C333C608C633C6D5E00B
:1001DB00F41822D083D082CEC0E0EFC0E0C02078EC
:1001EB0008E608C0E0DEFAE473C0D074072FD0D065
:1001FB00F8D0E0F618DFFAD020D0E0FFD0E0FE22F6
:10020B0074081201DE8A0C8B0D8C0E8D0F740A781C
:10021B000C12018A792178081201BC780C7908122A
:10022B0001027406780C12018A792578081201BC38
:10023B00780C7908120102E50C90DF0BF0E50EC586
:10024B000D90DF0AF0850D09E50990DF09F07F08B5
:10025B000201F490DF047405F090DF067403F0A341
:10026B007406F090DF0C74F5F0A37483F0A37403A1
:10027B00F090DF117415F090DF147418F0A314F0E4
:10028B0090DF1C74E9F0A3742AF0A3E4F0A3741FAD
:10029B00F090DF247431F0A37409F090DF2E74C05A
:1002AB00F012020B90DF2E74C0F075E10475E101C2
:1002BB0090DF3BE0640170F8C2892274081201DE02
:1002CB00E96052FA8A088E09740778081201CBF597
:1002DB000AF50BEA75F03BA4FAA8F0E4288A0CF5B2
:1002EB000D3395E0F50EF50F7808790C1201A9E5A1
:1002FB00C65407780812017185080C85090D850A0B
:10030B000E850B0F792978081201A9E50C450D45CF
:10031B000E450F70E3020259C0E0C0D0E8C0E0E91F
:10032B00C0E07861E67860600AA6D97861760078DB
:10033B00668030E6F97862E6C399E6F9500C78638B
:10034B00E629F8A6D9786206801B7860E669700BFF
:10035B007862067864E6F8A6D9800A7865E6F8A68E
:10036B00D978617601D0E0F9D0E0F8D0D0D0E03286
:10037B0074021201DE89088A09EBFFECFE786276C3
:10038B000078607600C289D2A8D2AF53E9EF7863C8
:10039B00A6087864A6097865EFF6EAF87600786522
:1003AB00E6F87600786676007861760175E1028072
:1003BB000679011202C61EE5E9A2E44017EE70F1C0
:1003CB007866E6640170067EFF760080EA75E104CC
:1003DB00C2A8801675E10453E9EFC2A8EFF8E6A2B4
:1003EB00E750077862E614F9800279007F02020178
:1003FB00F4E9FB7900EA700122C289C2A853E9EF44
:10040B0075E103A28950FCC2898AD9800CA289505C
:10041B00FCC289EB29F886D909E9C39A40EFE5E9D3
:10042B00A2E450FA53E9EF75E104227800790080D9
:10043B000508E8700109C3E89AE99B40F478007954
:10044B0000800508E8700109C3E89AE99B40F4783D
:10045B00007900800508E8700109C3E89AE99B4020
:10046B00F478007900800508E8700109C3E89AE97F
:10047B009B40F478007900800508E8700109C3E817
:10048B009AE99B40F478007900800508E87001092F
:10049B00C3E89AE99B40F422E9F4FAD2F0E9A2E02E
:1004AB0030F001B39290A2E713F4F8A2E09291E935
:1004BB00A2E2E433F8E9A2E713A2E713A2E09281E8
:1004CB0022120A1979001204A32275C9A875C958FA
:1004DB002275FD3E75FECF43F62075FF01C2A0C20B
:1004EB009622EEC0E0E5812404F581E9FEF8E6F8FA
:1004FB00C3940AA2D265D033500DE58124FDF97463
:10050B004428F8E6F78038740A687009E58124FD01
:10051B00F8794E8028740C687009E58124FDF87910
:10052B004F801A740E687009E58124FDF8795080AC
:10053B000C740F687009E58124FDF87951E7F674A6
:10054B00012EF8E62444F8E58124FEF9E6F774025F
:10055B002EFAF8E6243BF9E58114F8E7F6EAF8E61B
:10056B0064017006A881E64408F6E58124FDF912C2
:10057B0009CC74032EF8E6F91204A3158115811525
:10058B00811581D0E0FE22C008C009E9F8E6F50824
:10059B0075090008E6240878081201CB786BA608C9
:1005AB0008A609740229F8796DE6F70809E6F70839
:1005BB0009E6F70809E6F70809E6F70809E6F7D0B0
:1005CB0009D00822EEC0E0E5812404F581E9FEE5BF
:1005DB008124FDF875F00AEE842444F9E7F6EE75F4
:1005EB00F00A84E5F02444F8E58124FEF9E6F7E50A
:1005FB008114F87600087600191209CC79010205EE
:10060B0083C008C009C00AC00B53C6BFE5BEA2E633
:10061B0050FA53C6B843BE047867760008760208D2
:10062B007600087601C281795478081201BCAA08B9
:10063B00AB09AC0AAD0B12025E1204DC75A8814348
:10064B00A20175A41F75A3FFD2AFD2AD439A10437D
:10065B00A110D00BD00A0205CA7881E6601F788002
:10066B00E6601A788176007880760079671204ED5F
:10067B007879761C08760008760008760022E581EA
:10068B00240CF5817F0012060C79011204A3120AC7
:10069B002E7A067B00792D120A55787776010207A0
:1006AB002C79001204A37873760178757600787430
:1006BB0076007876E6F97873E6595E601176007805
:1006CB006D7608080876027A0A796B1203FC785863
:1006DB0079791200F2403578797600087600087641
:1006EB0000087600787676007E0078737600120428
:1006FB00CCC296787E06E6C39402401076007881D1
:10070B00760153BEFC43BE02438701001206647898
:10071B0074E6C3940BA2D265D03340057600120861
:10072B00C7795C78791201A91204D57CF0AB81E50D
:10073B008114FA24F6F912037BE9787DF6787FE6CB
:10074B00700478737600787DE67003020841E581CA
:10075B0024F5F91205927A087B00E58124F5F9124C
:10076B000A55786EE6A2E0400302084175F00A08CC
:10077B0008E6847867F67870E675F00A84E5F07819
:10078B0068F6797108E7F6787976000876000876CE
:10079B0000087600787F7601786FE6F4700F786A40
:1007AB00760079671204ED7E0178787600786DE635
:1007BB00640170340808E664027876701D7601795E
:1007CB00041204A3786A760479671204EDD2967A40
:1007DB00067B007934120A55800E76007967120475
:1007EB00ED79001204A3C296786DE6640270470897
:1007FB0008E664027028787676007E00786A7602C6
:10080B0079671204ED78797614087600087600087B
:10081B007600C29678787601787F760080187879A2
:10082B007600087600087600087600787676007EEB
:10083B00001204CCC296A2954039EEA2E040347867
:10084B00740678737601787576017853760078782C
:10085B00E66401700879671204ED0206BDEF6005CE
:10086B0079021205CF7879761D0876000876000894
:10087B000206BB78537601EF70187F017868760219
:10088B0079671204ED7879761408760008760008FB
:10089B0076007875E670030206B97853E6700302AA
:1008AB0006B97878E6640160030206AC7879761CA9
:1008BB000876000876000876000206B1EEC0E07EEE
:1008CB000379011204A37A207B4E120436790012AD
:1008DB0004A37A207B4E1204361204D5DEE31204F5
:1008EB00CCC296C2A07E0379FF1202C61204D5DEDB
:1008FB00F6D0E0FE22C0E0C0D0E8C0E0E58A600799
:10090B00758A0078807601C2EBD0E0F8D0D0D0E0C9
:10091B0032C2C753A1FE328003000019E970FA22DC
:10092B00D292D2937902120922C29322C2927905F2
:10093B00120922A29340FC790F120922D29279025A
:10094B00120922C29222D292C2937902120922D2A6
:10095B009322EEC0E0EFC0E0E9FF7E08C292EFA267
:10096B00E05004D2938002C2937903120922EFC3A1
:10097B0013FFD29279031209221EEE70DFD0E0FF33
:10098B00D0E0FE22EEC0E0E9FE12092B79401209FD
:10099B005D12093712095112092B74C02EF9120975
:1009AB005D120937790012095D12093712095112CC
:1009BB00092B798012095D120937120951D0E0FE1B
:1009CB0022EEC0E0EFC0E0C0088908AE0812092B88
:1009DB00794012095D12093712095112092B79C09E
:1009EB0012095D1209377F04EEF8E6F912095D74FE
:1009FB00012EFE120937DFF012095112092B798FE4
:100A0B0012095D120937120951D0080209887900C1
:100A1B0012098F790112098F790212098F7903124A
:100A2B00098F2253C6BFE5BEA2E650FA53C6B843A0
:100A3B00BE0475F10075F33C43868043C50B43C27E
:100A4B0022D2E943864043A884227C007D0080119A
:100A5B0087C1740129F9A2E950FCC2E90CEC7001C1
:0E0A6B000DC3EC9AED9BA2D265D03340E3227E
:04000005000000AA4D
:00000001FF
