:020000040000FA
:060000000200AA02031B2E
:03002B0002087B4D
:10007B0002086D00000080FBE479587821B800027B
:10008B008004F709D8FC78219000B37A37BA0002C4
:10009B008007E493A3F608DAF912066C12007E755A
:1000AB00D0007581BF020083E80300001A00000036
:1000BB00FFFFFFFF7A776174636800000004402044
:1000CB00020810013F065B4F666D7D077F6F773827
:1000DB00787176689B06001F00000001000000C3CA
:1000EB00E7960809E7960809E7960809E79622E4D8
:1000FB00CFC0E0E4CEC0E0E4CDC0E0E4CCC0E0751E
:10010B00F020E626F608E633F608E633F608E63383
:10011B00F6181818EC33FCED33FDEE33FEEF33FF1E
:10012B00C3EC9709ED9709EE9709EF971919194049
:10013B000FFFEC97FC09ED97FD09EE97FE191906D9
:10014B00D5F0BFECF709EDF709EEF709EFF7191941
:10015B0019D0E0FCD0E0FDD0E0FED0E0FF2260162D
:10016B00080808C6C313C618C613C618C613C61884
:10017B00C613C6D5E0EA22700908080822601618D3
:10018B001818C6C333C608C633C608C633C608C656
:10019B0033C6D5E0EA22E627F60809E637F6080962
:1001AB00E637F60809E637F622E7F60809E7F60818
:1001BB0009E7F60809E7F622700422600D18C6C39A
:1001CB0033C608C633C6D5E0F41822D083D082CE0E
:1001DB00C0E0EFC0E0C0207808E608C0E0DEFAE43B
:1001EB0073C0D074072FD0D0F8D0E0F618DFFAD058
:1001FB0020D0E0FFD0E0FE2274081201D68A0C8BCF
:10020B000D8C0E8D0F740A780C12018279217808EF
:10021B001201B4780C79081200FA7406780C1201EA
:10022B0082792578081201B4780C79081200FAE566
:10023B000C90DF0BF0E50EC50D90DF0AF0850D0974
:10024B00E50990DF09F07F080201EC90DF047405EB
:10025B00F090DF067403F0A37406F090DF0C74F5D6
:10026B00F0A37483F0A37403F090DF117415F09076
:10027B00DF147418F0A314F090DF1C74E9F0A3746E
:10028B002AF0A3E4F0A3741FF090DF247431F0A3E1
:10029B007409F090DF2E74C0F012020390DF2E74FD
:1002AB00C0F075E10475E10190DF3BE0640170F88B
:1002BB00C2892274081201D6E96052FA8A088E09A3
:1002CB00740778081201C3F50AF50BEA75F03BA425
:1002DB00FAA8F0E4288A0CF50D3395E0F50EF50F2E
:1002EB007808790C1201A1E5C65407780812016948
:1002FB0085080C85090D850A0E850B0F7929780861
:10030B001201A1E50C450D450E450F70E30202519C
:10031B00C0E0C0D0E8C0E0E9C0E07859E6785860AA
:10032B000AA6D978597600785E8030E6F9785AE6D5
:10033B00C399E6F9500C785BE629F8A6D9785A06EA
:10034B00801B7858E669700B785A06785CE6F8A63D
:10035B00D9800A785DE6F8A6D978597601D0E0F90C
:10036B00D0E0F8D0D0D0E03274021201D689088ADE
:10037B0009EBFFECFE785A760078587600C289D2EA
:10038B00A8D2AF53E9EF785BA608785CA609785D35
:10039B00EFF6EAF87600785DE6F87600785E7600A0
:1003AB007859760175E102800679011202BE1EE5CD
:1003BB00E9A2E44017EE70F1785EE6640170067E08
:1003CB00FF760080EA75E104C2A8801675E104533C
:1003DB00E9EFC2A8EFF8E6A2E75007785AE614F95E
:1003EB00800279007F020201ECE9FB7900EA7001DF
:1003FB0022C289C2A853E9EF75E103A28950FCC25E
:10040B00898AD9800CA28950FCC289EB29F886D93C
:10041B0009E9C39A40EFE5E9A2E450FA53E9EF7515
:10042B00E1042278007900800508E8700109C3E82F
:10043B009AE99B40F478007900800508E87001097F
:10044B00C3E89AE99B40F478007900800508E870CE
:10045B000109C3E89AE99B40F4780079008005080C
:10046B00E8700109C3E89AE99B40F47800790080B1
:10047B000508E8700109C3E89AE99B40F478007914
:10048B0000800508E8700109C3E89AE99B40F42253
:10049B00E9F4FAD2F0E9A2E030F001B39290A2E7CE
:1004AB0013F4F8A2E09291E9A2E2E433F8E9A2E7AF
:1004BB0013A2E713A2E0928122120905790012041C
:1004CB009B2275C90043C9082275C9A875C9582252
:1004DB0075FD3E75FECF43F62075FF01C2A0D2928B
:1004EB00D293C29622EEC0E0E5812404F581E9FEA9
:1004FB00F8E6F8C3940AA2D265D033500DE58124F7
:10050B00FDF9743D28F8E6F78038740A687009E540
:10051B008124FDF879478028740C687009E58124E3
:10052B00FDF87948801A740E687009E58124FDF88E
:10053B007949800C740F687009E58124FDF8794ABC
:10054B00E7F674012EF8E6243DF8E58124FEF9E682
:10055B00F774022EFAF8E62434F9E58114F8E7F67D
:10056B00EAF8E664017004A8817608E58124FDF9B8
:10057B0012091174032EF8E6F912049B15811581EB
:10058B0015811581D0E0FE22C008C009E9F8E6F517
:10059B000875090008E6240878081201C37863A6D9
:1005AB000808A609740229F87965E6F70809E6F741
:1005BB000809E6F70809E6F70809E6F70809E6F778
:1005CB00D009D00822EEC0E0E5812404F581E9FED4
:1005DB00E58124FDF875F00AEE84243DF9E7F6EE8B
:1005EB0075F00A84E5F0243DF8E58124FEF9E6F781
:1005FB00E58114F8760008760019120911790102C9
:10060B000584C008C009C00AC00B53C6BFE5BEA213
:10061B00E650FA53C6B843BE04785F7600087602FC
:10062B00087600087601794C78081201B4AA08AB59
:10063B0009AC0AAD0B1202561204DB75A881438D6F
:10064B0020438C0243A20175A41F75A3FFD2AFD226
:10065B00AD439A1043A110120905D00BD00A020525
:10066B00CBE581240CF58112060D790112049B1246
:10067B0009501204CD7A067B00792D120977786E1A
:10068B007601806F7600786DE66016786BE6601108
:10069B00760078657608080876027A0A7963120381
:1006AB00F4785079711200EA403778717600087649
:1006BB0000087600087600786D7600786F76007803
:1006CB006B76001204C4C296787606E6C394024099
:1006DB001076007878760153BEFC43BE0243870147
:1006EB0000786CE6C3940BA2D265D033400576003C
:1006FB00120836795478711201A11204D47CF0AB34
:10070B0081E58114FA24F6F9120373E97875F6780A
:10071B0077E67004786B76007875E670030207FD58
:10072B00E58124F5F91205937866E6A2E040030211
:10073B0007FD75F00A0808E684785FF67868E675B9
:10074B00F00A84E5F07860F678697961E6F77871FC
:10075B0076000876000876000876007877760178C0
:10076B0067E6F470117862760019191204F0786F4D
:10077B007601787076007865E66401701F0808E6EC
:10078B006402786D700F760178627604795F1204DB
:10079B00F0D29680077600790012049B7865E664A8
:1007AB0002704F0808E66402702A786D7600786F45
:1007BB00760078627602795F1204F078717614080D
:1007CB007600087600087600C29678707601787706
:1007DB007600801E78717600087600087600087621
:1007EB0000786D7600786F7600787076001204C40E
:1007FB00C296A295786C500302068F06786FE6645A
:10080B00017007786B76010206917870E6640170CF
:10081B0007795F1204F0800579021205D0787176A2
:10082B001D0876000876000802068FEEC0E07E03F6
:10083B00790112049B7A207B4E12042E790012044C
:10084B009B7A207B4E12042E1204D4DEE31204C4D6
:10085B00C296C2A07E0379FF1202BE1204D4DEF64A
:10086B0080FEC0E0E58A6003758A00C2EBD0E032FF
:10087B00C2C753A1FE32D293D2920000000000D225
:10088B00930000000000C2930000000000C29222FF
:10089B00C29200000000000000000000C2930000A4
:1008AB000000000000000000D292000000000000D9
:1008BB00000000000000000000D2930000000000C8
:1008CB00C292C293227808C292E9A2E05004D2935A
:1008DB008002C2930000000000D292C313F918E803
:1008EB0070E5C2920000000000A29340FC000000E3
:1008FB000000D292000000000022120881798012C1
:10090B0008D012089B22EEC0E0EFC0E0E9FE12080F
:10091B008179401208D012089B12088179C0120805
:10092B00D07F04EEF8E6F91208D074012EFEDFF347
:10093B0012089B120881798C1208D012089BD0E008
:10094B00FFD0E0FE2253C6BFE5BEA2E650FA53C667
:10095B00B843BE0475F10075F33C43868043C50B69
:10096B0043C222D2E943864043A884227C007D0007
:10097B00801187C1740129F9A2E950FCC2E90CEC82
:10098B0070010DC3EC9AED9BA2D265D03340E322EC
:04000005000000AA4D
:00000001FF
