:020000040000FA
:060000000200BB02033404
:03002B0002044A82
:1000830002044600000080FB1200C4B90003020012
:10009300B5E4796B7807B800028004F709D8FC78D7
:1000A300419000C77A2ABA00028007E493A3F608B6
:1000B300DAF912045012008675D0007581BF020070
:1000C3008B790122E80300001A000000FFFFFFFF05
:1000D3000102030405060708090A689B06000000DD
:1000E300000001000000204E000002000000C3E7F2
:1000F300960809E7960809E7960809E79622E4CFE8
:10010300C0E0E4CEC0E0E4CDC0E0E4CCC0E075F0F4
:1001130020C3E633F608E633F608E633F608E6339B
:10012300F6181818EC33FCED33FDEE33FEEF33FF16
:10013300C3EC9709ED9709EE9709EF971919194041
:100143000FFFEC97FC09ED97FD09EE97FE191906D1
:10015300D5F0BEECF709EDF709EEF709EFF719193A
:1001630019D0E0FCD0E0FDD0E0FED0E0FF22601625
:10017300080808C6C313C618C613C618C613C6187C
:10018300C613C6D5E0EA22700908080822601618CB
:100193001818C6C333C608C633C608C633C608C64E
:1001A30033C6D5E0EA22E627F60809E637F608095A
:1001B300E637F60809E637F622E7F60809E7F60810
:1001C30009E7F60809E7F622CAC0E0E6F70908DA04
:1001D300FAD0E0FA22700422600D18C6C333C608B1
:1001E300C633C6D5E0F41822D083D082CEC0E0EF68
:1001F300C0E0C0207821E608C0E0DEFAE473C0D096
:1002030074202FD0D0F8D0E0F618DFFAD020D0E059
:10021300FFD0E0FE2274081201EB8A258B268C277F
:100223008D28740A782512018A794178211201BC3C
:10023300782579211201017406782512018A7945FE
:1002430078211201BC78257921120101E52590DF7F
:100253000BF0E527C52690DF0AF0852622E52290DC
:10026300DF09F07F0802020190DF047405F090DFDC
:10027300067403F0A37406F090DF0C74F5F0A37416
:1002830083F0A37403F090DF117415F090DF1474FE
:1002930018F0A314F090DF1C74E9F0A3742AF0A300
:1002A300E4F0A3741FF090DF247431F0A37409F019
:1002B30090DF2E74C0F012021890DF2E74C0F07518
:1002C300E10475E10190DF3BE0640170F8C289222B
:1002D30074081201EBE9FC60558C82AA828A218E94
:1002E30022740778211201D8F523F524EA75F03B2F
:1002F300A4FAA8F0E4288A25F5263395E0F527F536
:1003030028782179251201A9E5C65407782112011D
:1003130071852125852226852327852428794978F7
:10032300211201A9E52545264527452870E3020248
:1003330066C0E0C0D0E8C0E0E9C0E0786CE6786B66
:10034300600AA6D9786C76007871802C796DE7C342
:1003530096786D500C796EE726F8A6D9786D0680ED
:1003630019796BE766700906786FE6F8A6D9800AF3
:100373007870E6F8A6D9786C7601D0E0F9D0E0F889
:10038300D0D0D0E03274021201EB89218A22EBFE35
:10039300ECFF786D7600786B7600C289D2A8D2AF75
:1003A30053E9EF786EA621786FA6227870EEF6EA0D
:1003B300F876007870E6F8760078717600786C76D7
:1003C3000175E102800679011202D31FE5E9A2E477
:1003D3004017EF70F17871E6640170067FFF7600D5
:1003E30080EA75E104C2A8801675E10453E9EFC2FF
:1003F300A8EEF8E6A2E75007786DE614F9800279D3
:10040300007F02020201E9FBEA7003790022C2893C
:10041300C2A853E9EF75E103A28950FCC2898AD9C6
:100423007900800DA28950FCC289EB29F8E6F5D941
:1004330009E9C39A40EEE5E9A2E450FA53E9EF75FE
:10044300E10422539BFC32C2C753A1FE32E581244F
:100453001AF581784D24E7F9740A1201CB43FE03A0
:1004630053C67F53C6BFE5BEA2E650FA53C6B84390
:10047300BE047591FF795778211201BCAA21AB22E2
:10048300AC23AD2412026B85A2A2D2AD43A110D23C
:10049300AF8002D29153BEF843BE0143A204438707
:1004A30001E5BEA2E650FA75E10475E10190DF3B78
:1004B300E0640170F8795BE58124FDF81201BC80EA
:1004C3000A795FE58124FDF81201A9E58124FDF98C
:1004D30078631200F140EAC290795BE58124FDF86C
:1004E3001201BC800A795FE58124FDF81201A9E5B8
:1004F3008124FDF978631200F140EA7A0AE5812448
:10050300E7F9120409D290795BE58124FDF8120121
:10051300BC800A795FE58124FDF81201A9E58124F5
:10052300FDF978671200F1501A43A2047CF0E581CB
:1005330024FCFBE924FBFAE924F1F9120388E964BA
:100543000A70D0E58124FDF978671200F1400302B7
:070553000496C29102049816
:04000005000000BB3C
:00000001FF
