:020000040000FA
:060000000200BB02032216
:030013000206AB37
:03002B000206C00A
:100083000206BC00000080FB1200C4B9000302009A
:10009300B5E479767825B800028004F709D8FC78AE
:1000A300419000C77A35BA00028007E493A3F608AB
:1000B300DAF91204AF12008675D0007581BF020011
:1000C3008B790122E80300001A000000FFFFFFFF05
:1000D3005A736572766572005246204368616E6793
:1000E3006564000A00689B06000000000001000030
:1000F30000A03E0D0070C30D00E4CFC0E0E4CEC00D
:10010300E0E4CDC0E0E4CCC0E075F020C3E633F614
:1001130008E633F608E633F608E633F6181818EC63
:1001230033FCED33FDEE33FEEF33FFC3EC9709ED04
:100133009709EE9709EF97191919400FFFEC97FCF0
:1001430009ED97FD09EE97FE191906D5F0BEECF7F8
:1001530009EDF709EEF709EFF7191919D0E0FCD00B
:10016300E0FDD0E0FED0E0FF226016080808C6C319
:1001730013C618C613C618C613C618C613C6D5E0C9
:10018300EA227009080808226016181818C6C33333
:10019300C608C633C608C633C608C633C6D5E0EAA2
:1001A30022E627F60809E637F60809E637F60809CE
:1001B300E637F622E7F60809E7F60809E7F608093D
:1001C300E7F622700422600D18C6C333C608C6338F
:1001D300C6D5E0F41822D083D082CEC0E0EFC0E0D1
:1001E300C0207821E608C0E0DEFAE473C0D07420B2
:1001F3002FD0D0F8D0E0F618DFFAD020D0E0FFD02F
:10020300E0FE2274081201D98A258B268C278D28BB
:10021300740A7825120185794178211201B778256E
:1002230079211200FC74067825120185794578211D
:100233001201B7782579211200FCE52590DF0BF038
:10024300E527C52690DF0AF0852622E52290DF09FF
:10025300F07F080201EF90DF047405F090DF06746D
:1002630003F0A37406F090DF0C74F5F0A37483F02D
:10027300A37403F090DF117415F090DF147418F079
:10028300A314F090DF1C74E9F0A3742AF0A3E4F044
:10029300A3741FF090DF247431F0A37409F090DF8E
:1002A3002E74C0F012020690DF2E74C0F075E104C4
:1002B30075E10190DF3BE0640170F8C289227408A4
:1002C3001201D9E9FC60558C82AA828A218E22749C
:1002D3000778211201C6F523F524EA75F03BA4FA49
:1002E300A8F0E4288A25F5263395E0F527F5287844
:1002F3002179251201A4E5C65407782112016C85E2
:1003030021258522268523278524287949782112CA
:1003130001A4E52545264527452870E3020254C07C
:10032300E0C0D0E8C0E0E9C0E07877E67876600A1C
:10033300A6D978777600787C802C7978E7C396788D
:1003430078500C7979E726F8A6D978780680197958
:1003530076E766700906787AE6F8A6D9800A787B8C
:10036300E6F8A6D978777601D0E0F9D0E0F8D0D0D6
:10037300D0E03274021201D989218A22EBFEECFF0C
:100383007878760078767600C289D2A8D2AF53E91E
:10039300EF7879A621787AA622787BEEF6EAF876CA
:1003A30000787BE6F87600787C76007877760175BE
:1003B300E102800679011202C11FE5E9A2E44017B8
:1003C300EF70F1787CE6640170067FFF760080EAC7
:1003D30075E104C2A8801675E10453E9EFC2A8EEE3
:1003E300F8E6A2E750077878E614F9800279007FEF
:1003F300020201EFE9FBEA7003790022C289C2A875
:1004030053E9EF75E103A28950FCC2898AD97900C7
:10041300800DA28950FCC289EB29F8E6F5D909E9D8
:10042300C39A40EEE5E9A2E450FA53E9EF75E1041B
:1004330022C021C022C023C02443FE0353FEF35332
:10044300C6BFE5BEA2E650FA53C6B843BE047962FE
:1004530078211201B7AA21AB22AC23AD2412025991
:1004630075A88185A2A243A110D2AD8036C021C058
:1004730022E9FAF8862175220008E6240878211279
:1004830001C6787DA62108A62274022AF8797FE6A0
:10049300F70809E6F70809E6F70809E6F70809E6A1
:1004A300F78004D024D023D022D021221204341286
:1004B30006CD7A077B00794D1206F480447899E6DD
:1004C3002401F608E436F612051678607999C3E636
:1004D300970809E697501878997600087600788E81
:1004E3007600788676047A077B0079841206F4789E
:1004F3008D7600788EE6640160C343BE03438701B3
:100503000012060AE9788EF67A077B00794D120607
:10051300F480E074041201D9E5812414F58190DF9D
:100523003BE0640170F8C290788076FF7A07797DAA
:100533001203F7D290787F76017966E58124F7F884
:100543001201B7801BEE24010EEF3400FFC3EE94BB
:1005530005EF94004025796AE58124F7F81201A498
:10056300E58124F7F978211201B7E52145224523D6
:10057300452460030205FF7E007F00EE7880F67A53
:1005830007797D1203F77966E58124FBF81201B739
:10059300800A796AE58124FBF81201A4E58124FB32
:1005A300F978211201B7E5214522452345247095A9
:1005B3007CF0AB81E58114FA24EEF9120376E9604D
:1005C300D1C291E58124EDF9120470787FE66408C5
:1005D30070C076027A07797D1203F778807987E60F
:1005E300F7788676037A077B001919191206F478CF
:1005F300997600087600788E7600D291E58124EC16
:10060300F5817F040201EFC021C022C023C02478FA
:100613008DE6640170577600788B798CE7248FF927
:10062300E6F7788C06788BE664236007788CE664BB
:1006330007703A788C76007891E664FE703408E6A9
:10064300600814600914600A801A79628006796E62
:100653008002797278211201B7AA21AB22AC23ADB3
:10066300241202597A0A7B0079551206F4790002A2
:1006730004A618E6FB18E67884F608EBF60876027B
:1006830078927987E6F70809E6F70809E6F708E6B6
:100693007860F60876007A077B0079841206F4798D
:1006A3008F120470790180C7C0E0E8C28B788D7621
:1006B30001788BA6C1F8D0E032539BFC32C2C753FA
:1006C300A1FE53BEFC438701003253C6BFE5BEA261
:1006D300E650FA53C6B843BE0475F10075F33C43C4
:1006E300868043C50B43C222D2E943864043A88494
:1006F300227C007D008012E7F5C109A2E950FCC20B
:10070300E9EC24010CED3400FDC3EC9AED9BA2D27D
:0607130065D03340E22234
:04000005000000BB3C
:00000001FF
