:020000040000FA
:060000000200BB02032117
:1000830002056500000080FB1200C4B900030200F2
:10009300B5E47965780EB800028004F709D8FC78D6
:1000A300419000C77A24BA00028007E493A3F608BC
:1000B300DAF91204A112008675D0007581BF02001F
:1000C3008B790122E80300001A000000FFFFFFFF05
:1000D3005A73657276657200689B06000000000023
:1000E3000100000014000000C3E7960809E7960822
:1000F30009E7960809E79622E4CFC0E0E4CEC0E022
:10010300E4CDC0E0E4CCC0E075F020C3E633F608EC
:10011300E633F608E633F608E633F6181818EC3338
:10012300FCED33FDEE33FEEF33FFC3EC9709ED97A0
:1001330009EE9709EF97191919400FFFEC97FC097E
:10014300ED97FD09EE97FE191906D5F0BEECF709F8
:10015300EDF709EEF709EFF7191919D0E0FCD0E034
:10016300FDD0E0FED0E0FF226016080808C6C313E6
:10017300C618C613C618C613C618C613C6D5E0EAF2
:10018300227009080808226016181818C6C333C657
:1001930008C633C608C633C608C633C6D5E0EA2246
:1001A300E627F60809E637F60809E637F60809E60A
:1001B30037F622E7F60809E7F60809E7F60809E73C
:1001C300F622700422600D18C6C333C608C633C6B0
:1001D300D5E0F41822D083D082CEC0E0EFC0E0C0D7
:1001E300207821E608C0E0DEFAE473C0D074202F43
:1001F300D0D0F8D0E0F618DFFAD020D0E0FFD0E07E
:10020300FE2274081201D88A258B268C278D287428
:100213000A7825120184794178211201B67825796B
:10022300211200FB74067825120184794578211286
:1002330001B6782579211200FBE52590DF0BF0E567
:1002430027C52690DF0AF0852622E52290DF09F0F4
:100253007F080201EE90DF047405F090DF0674035B
:10026300F0A37406F090DF0C74F5F0A37483F0A38D
:100273007403F090DF117415F090DF147418F0A379
:1002830014F090DF1C74E9F0A3742AF0A3E4F0A344
:10029300741FF090DF247431F0A37409F090DF2E03
:1002A30074C0F012020590DF2E74C0F075E104757E
:1002B300E10190DF3BE0640170F8C2892274081207
:1002C30001D8E9FC60558C82AA828A218E227407A8
:1002D30078211201C5F523F524EA75F03BA4FAA8A9
:1002E300F0E4288A25F5263395E0F527F5287821CB
:1002F30079251201A3E5C65407782112016B8521E4
:1003030025852226852327852428794978211201EA
:10031300A3E52545264527452870E3020253C0E09F
:10032300C0D0E8C0E0E9C0E07866E67865600AA678
:10033300D978667600786B802C7967E7C3967867FF
:10034300500C7968E726F8A6D9786706801979658D
:10035300E7667009067869E6F8A6D9800A786AE63E
:10036300F8A6D978667601D0E0F9D0E0F8D0D0D0FD
:10037300E03274021201D889218A22EBFEECFF7865
:1003830067760078657600C289D2A8D2AF53E9EFC9
:100393007868A6217869A622786AEEF6EAF87600EC
:1003A300786AE6F87600786B76007866760175E110
:1003B30002800679011202C01FE5E9A2E44017EFAB
:1003C30070F1786BE6640170067FFF760080EA7552
:1003D300E104C2A8801675E10453E9EFC2A8EEF860
:1003E300E6A2E750077867E614F9800279007F02F6
:1003F3000201EEE9FBEA7003790022C289C2A85325
:10040300E9EF75E103A28950FCC2898AD97900809A
:100413000DA28950FCC289EB29F8E6F5D909E9C395
:100423009A40EEE5E9A2E450FA53E9EF75E10422BC
:10043300C021C022C023C02443FE0353C6BFE5BE70
:10044300A2E650FA53C6B843BE0479557821120187
:10045300B6AA21AB22AC23AD2412025875A881D0D1
:1004630024D023D022D02122C021C022E9FAF88649
:100473002175220008E6240878211201C5786CA6AC
:100483002108A62274022AF8796EE6F70809E6F72E
:100493000809E6F70809E6F70809E6F780C5E581E4
:1004A3002410F5811204331205697A077B00794D14
:1004B300120590786C7602087601087601080876B2
:1004C3000808760208763890DF3BE0640170F8C2D2
:1004D30090786F76FF7A07796C1203F6D290786E74
:1004E30076017E007F00EE786FF67A07796C12034F
:1004F300F67959E58124FBF81201B6800A795DE5A6
:100503008124FBF81201A3E58124FBF97861120031
:10051300EB50397CF0AB81E58114FA24F2F9120334
:1005230075E960D97A077B00E58124F1F91205901A
:10053300C291E58124F1F912046B786EE6640870C8
:100543000976027A07796C1203F6D291EE24010E32
:10055300EF3400FFC3EE9402EF940040030204CA99
:100563008084539BFC3253C6BFE5BEA2E650FA53C8
:10057300C6B843BE0475F10075F33C43868043C59A
:100583000B43C222D2E943864043A884227C007DE8
:10059300008012E7F5C109A2E950FCC2E9EC24018D
:1005A3000CED3400FDC3EC9AED9BA2D265D0334031
:0205B300E22242
:04000005000000BB3C
:00000001FF
