:020000040000FA
:060000000200B202069CA2
:0300130002055E85
:03002B0002057358
:1000830002056F00000080FBE4794D7860B8000240
:100093008004F709D8FC78219000BB7A2CBA0002BF
:1000A3008007E493A3F608DAF91202A91200867511
:1000B300D0007581BF02008B5246204368616E6792
:1000C3006564000A689B060001000000020000004E
:1000D300A03E0D0070C30D00E80300001A000000ED
:1000E300FFFFFFFFC3E7960809E7960809E79608AD
:1000F30009E79622E4CFC0E0E4CEC0E0E4CDC0E05F
:10010300E4CCC0E075F020E626F608E633F608E610
:1001130033F608E633F6181818EC33FCED33FDEE2E
:1001230033FEEF33FFC3EC9709ED9709EE9709EF21
:1001330097191919400FFFEC97FC09ED97FD09EE8C
:1001430097FE191906D5F0BFECF709EDF709EEF79D
:1001530009EFF7191919D0E0FCD0E0FDD0E0FED08B
:10016300E0FF226016080808C6C313C618C613C6E4
:1001730018C613C618C613C6D5E0EA2270090808C4
:1001830008226016181818C6C333C608C633C60833
:10019300C633C608C633C6D5E0EA22E627F6080901
:1001A300E637F60809E637F60809E637F622E7F6F2
:1001B3000809E7F60809E7F60809E7F622600D08DB
:1001C300C6A2E713C618C613C6D5E0F322700422ED
:1001D300600D18C6C333C608C633C6D5E0F418226B
:1001E300D083D082CEC0E0EFC0E0C0207808E6081C
:1001F300C0E0DEFAE473C0D074072FD0D0F8D0E0AB
:10020300F618DFFAD020D0E0FFD0E0FE22EAF8EBC8
:10021300F9E824FF1AE934FFFBE84970F02275C9B5
:100223000043C9082275C9A875C95822C008C00966
:10023300C00AC00B43FE0353FEF353C6BFE5BEA281
:10024300E650FA53C6B843BE04792D78081201B1BB
:10025300AA08AB09AC0AAD0B1205D375A88185A218
:10026300A243A110120221020367E9FCF8E6FA088F
:10027300E6F8E4C8F9EA28E439FB784DEAF608EB36
:10028300F674022CF8794FE6F7740112029A1202FF
:100293009A28F809E6F72228F809E6F7740128F8FE
:1002A30009E6F774012212022F1207AE784D760287
:1002B3000876010876010876FF08087601087602B9
:1002C300087638120490E97866F61202287866E612
:1002D300640170EF792D78081201B1AA08AB09AC5B
:1002E3000AAD0B1205D378A4E62401F608E436F62A
:1002F300120370782CE678A4C39608E49650171876
:10030300760008760078667600785776047A087B5C
:100313000079551207D57865760080B1C008C00909
:10032300E9FC7B007A007900EC2A04F8E6F508750D
:100333000900E978081201C0E508A2E05012EA3387
:10034300333354F82904C0E0747B2BF8D0E0F60B68
:1003530009E9C3940840D10AEAC3940540C878A3C5
:10036300EBF68004D00BD00AD009D0082274041213
:1003730001E3E5812414F58112022890DF3BE06458
:100383000170F8C290785176FF7A08794D1207719F
:10039300784F7601E58124F7F87600087600087631
:1003A30000087600800A7931E58124F7F812019E6E
:1003B3007835E58124F7F91200E740030204857ECE
:1003C300007F0080050EEE70010F78A3E6F8C3EE00
:1003D30098EF940050D07A087B00794D1207D5EE40
:1003E300247BF97851E7F6C2907A08794D120771A8
:1003F3007A017B00120210D290E58124FBF876008B
:10040300087600087600087600800A7931E58124B1
:10041300FBF812019EE58124FBF978081201B1E58E
:10042300084509450A450B709C1202287CF0AB81F4
:10043300E58114FA24EEF91206F0E9D29060CCE5D6
:100443008124EDF912026D784FE6640870BD7602DF
:100453007E057A08794D1207717A027B0012021029
:10046300DEF078517959E6F7785776037A087B00FE
:1004730079551207D578A476000876007866760059
:10048300D291E58124ECF5817F040201F9C008C013
:1004930009C00AC00B7865E664017057760079637A
:1004A3007864E62467F8E7F67864067863E66423FD
:1004B30060077864E6640F703A786476007869E6DA
:1004C30064FE703408E6600814600914600A801A38
:1004D300792D800679398002793D78081201B1AA15
:1004E30008AB09AC0AAD0B1205D37A0A7B0079215C
:1004F3001207D579000203671818E6FAE4CAFB0865
:10050300E67855F608EBF6087602786A7958E6F746
:100513000809E6F70809E6F70809E6F708792CE67B
:10052300F708795DE6F77B00EA2470F8EA245EF9C0
:10053300E6F70AEA70010BC3940AEB9400A2D265B2
:10054300D03340E4795D12031F7A087B007955129A
:1005530007D5796712026D7901809AC0E0E8C28BF2
:10056300786576017863A6C1F8D0E032539BFC32FC
:10057300C2C753A1FE53BEFC438701003274081265
:1005830001E38A0C8B0D8C0E8D0F740A780C12010B
:100593007F794178081201B1780C79081200F77459
:1005A30006780C12017F794578081201B1780C792D
:1005B300081200F7E50C90DF0BF0E50EC50D90DF98
:1005C3000AF0850D09E50990DF09F07F080201F9BA
:1005D30090DF047405F090DF067403F0A37406F053
:1005E30090DF0C74F5F0A37483F0A37403F090DF31
:1005F300117415F090DF147418F0A314F090DF1C3D
:1006030074E9F0A3742AF0A3E4F0A3741FF090DF5D
:10061300247431F0A37409F090DF2E74C0F0120536
:100623008090DF2E74C0F075E10475E10190DF3B2B
:10063300E0640170F8C2892274081201E3E9FC60E6
:10064300558C82AA828A088E09740778081201D011
:10065300F50AF50BEA75F03BA4FAA8F0E4288A0C36
:10066300F50D3395E0F50EF50F7808790C12019E20
:10067300E5C65407780812016685080C85090D85BF
:100683000A0E850B0F7949780812019EE50C450D7A
:10069300450E450F70E30205CEC0E0C0D0E8C0E0D0
:1006A300E9C0E078A7E678A6600AA6D978A776001D
:1006B30078AC802C79A8E7C39678A8500C79A9E781
:1006C30026F8A6D978A806801979A6E766700906E0
:1006D30078AAE6F8A6D9800A78ABE6F8A6D978A76F
:1006E3007601D0E0F9D0E0F8D0D0D0E03274021235
:1006F30001E389088A09EBFEECFF78A8760078A667
:100703007600C289D2A8D2AF53E9EF78A9A60878B8
:10071300AAA60978ABEEF6EAF8760078ABE6F876A7
:100723000078AC760078A7760175E102800679013E
:1007330012063B1FE5E9A2E44017EF70F178ACE63F
:10074300640170067FFF760080EA75E104C2A88029
:100753001675E10453E9EFC2A8EEF8E6A2E75007E5
:1007630078A8E614F9800279007F020201F9E9FB17
:10077300EA7003790022C289C2A853E9EF75E10345
:10078300A28950FCC2898AD97900800DA28950FCC4
:10079300C289EB29F8E6F5D909E9C39A40EEE5E900
:1007A300A2E450FA53E9EF75E1042253C6BFE5BE54
:1007B300A2E650FA53C6B843BE0475F10075F33C84
:1007C30043868043C50B43C222D2E943864043A8F4
:1007D30084227C007D008012E7F5C109A2E950FC68
:1007E300C2E9EC24010CED3400FDC3EC9AED9BA2AD
:0707F300D265D03340E22281
:04000005000000B245
:00000001FF
