:020000040000FA
:060000000200B20205AC93
:0300130002046E76
:03002B0002048349
:1000830002047F00000080FBE479497827B800026E
:100093008004F709D8FC78219000BB7A28BA0002C3
:1000A3008007E493A3F608DAF91202691200867551
:1000B300D0007581BF02008B5246204368616E6792
:1000C3006564000A689B060001000000A03E0D0065
:1000D30070C30D00E80300001A000000FFFFFFFFDC
:1000E300E4CFC0E0E4CEC0E0E4CDC0E0E4CCC0E0C7
:1000F30075F020E626F608E633F608E633F608E65A
:1001030033F6181818EC33FCED33FDEE33FEEF3302
:10011300FFC3EC9709ED9709EE9709EF97191919A2
:10012300400FFFEC97FC09ED97FD09EE97FE1919B7
:1001330006D5F0BFECF709EDF709EEF709EFF7196C
:100143001919D0E0FCD0E0FDD0E0FED0E0FF226042
:1001530016080808C6C313C618C613C618C613C69E
:1001630018C613C6D5E0EA227009080808226016EB
:10017300181818C6C333C608C633C608C633C6081C
:10018300C633C6D5E0EA22E627F60809E637F608BD
:1001930009E637F60809E637F622E7F60809E7F62F
:1001A3000809E7F60809E7F622700422600D18C66D
:1001B300C333C608C633C6D5E0F41822D083D08231
:1001C300CEC0E0EFC0E0C0207808E608C0E0DEFA69
:1001D300E473C0D074072FD0D0F8D0E0F618DFFA5C
:1001E300D020D0E0FFD0E0FE22C008C009C00AC082
:1001F3000B43FE0353FEF353C6BFE5BEA2E650FA1C
:1002030053C6B843BE04792D780812019DAA08ABE2
:1002130009AC0AAD0B1204E375A88185A2A243A120
:1002230010D00BD00AD009D00822E9FCF8E6FA086E
:10023300E6F8E4C8F9EA28E439FB7849EAF608EB7A
:10024300F674022CF8794BE6F7740112025A120283
:100253005A28F809E6F72228F809E6F7740128F87E
:1002630009E6F77401221201EC1206BE7849760200
:1002730008760108760108080876080876020876E9
:10028300381203C3E9785CF6785CE6640170F278AF
:1002930067E62401F608E436F61202C8782CE678FD
:1002A30067C39608E4965017187600087600785CC2
:1002B3007600785376047A087B0079511206E57844
:1002C3005B760080C374041201BFE5812414F581B9
:1002D30090DF3BE0640170F8C290784D76FF7A08B6
:1002E3007949120681D290784B7601E58124F7F89B
:1002F300760008760008760008760080170EEE7008
:10030300010FC39405EF940040257931E58124F76B
:10031300F812018AE58124F7F9780812019DE508AE
:100323004509450A450B60030203B87E007F00EED2
:10033300784DF67A087949120681E58124FBF8762F
:1003430000087600087600087600800A7931E58196
:1003530024FBF812018AE58124FBF9780812019D38
:10036300E5084509450A450B70937CF0AB81E581AF
:1003730014FA24EEF9120600E960D1C291E5812452
:10038300EDF912022D784BE6640870C076027A0804
:100393007949120681784D7955E6F7785376037AD1
:1003A300087B0079511206E57867760008760078B5
:1003B3005C7600D291E58124ECF5817F040201D5BE
:1003C300C008C009C00AC00B785BE66401705776A9
:1003D300007959785AE6245DF8E7F6785A06785991
:1003E300E664236007785AE66408703A785A760020
:1003F300785FE664FE703408E660081460091460F0
:100403000A801A792D8006793580027939780812A5
:10041300019DAA08AB09AC0AAD0B1204E37A0A7B6F
:100423000079211206E5790002022418E6FB18E69A
:100433007851F608EBF608760278607954E6F70807
:1004430009E6F70809E6F70809E6F708792CE6F75D
:100453007A087B0079511206E5795D12022D7A083C
:100463007B00795D1206E5790180BDC0E0E8C28BAF
:10047300785B76017859A6C1F8D0E032539BFC3201
:10048300C2C753A1FE53BEFC438701003274081256
:1004930001BF8A0C8B0D8C0E8D0F740A780C120120
:1004A3006B793D780812019D780C79081200E3748A
:1004B30006780C12016B7941780812019D780C794A
:1004C300081200E3E50C90DF0BF0E50EC50D90DF9D
:1004D3000AF0850D09E50990DF09F07F080201D5CF
:1004E30090DF047405F090DF067403F0A37406F044
:1004F30090DF0C74F5F0A37483F0A37403F090DF22
:10050300117415F090DF147418F0A314F090DF1C2D
:1005130074E9F0A3742AF0A3E4F0A3741FF090DF4E
:10052300247431F0A37409F090DF2E74C0F0120428
:100533009090DF2E74C0F075E10475E10190DF3B0C
:10054300E0640170F8C2892274081201BFE9FC60FB
:10055300558C82AA828A088E09740778081201AC26
:10056300F50AF50BEA75F03BA4FAA8F0E4288A0C27
:10057300F50D3395E0F50EF50F7808790C12018A25
:10058300E5C65407780812015285080C85090D85C4
:100593000A0E850B0F7945780812018AE50C450D83
:1005A300450E450F70E30204DEC0E0C0D0E8C0E0B2
:1005B300E9C0E0786AE67869600AA6D9786A7600C5
:1005C300786F802C796BE7C396786B500C796CE766
:1005D30026F8A6D9786B0680197969E7667009064B
:1005E300786DE6F8A6D9800A786EE6F8A6D9786A17
:1005F3007601D0E0F9D0E0F8D0D0D0E03274021226
:1006030001BF89088A09EBFEECFF786B76007869F5
:100613007600C289D2A8D2AF53E9EF786CA60878E6
:100623006DA609786EEEF6EAF87600786EE6F8764F
:1006330000786F7600786A760175E10280067901A9
:1006430012054B1FE5E9A2E44017EF70F1786FE65E
:10065300640170067FFF760080EA75E104C2A8801A
:100663001675E10453E9EFC2A8EEF8E6A2E75007D6
:10067300786BE614F9800279007F020201D5E9FB69
:10068300EA7003790022C289C2A853E9EF75E10336
:10069300A28950FCC2898AD97900800DA28950FCB5
:1006A300C289EB29F8E6F5D909E9C39A40EEE5E9F1
:1006B300A2E450FA53E9EF75E1042253C6BFE5BE45
:1006C300A2E650FA53C6B843BE0475F10075F33C75
:1006D30043868043C50B43C222D2E943864043A8E5
:1006E30084227C007D008012E7F5C109A2E950FC59
:1006F300C2E9EC24010CED3400FDC3EC9AED9BA29E
:07070300D265D03340E22271
:04000005000000B245
:00000001FF
