:020000040000FA
:060000000200B2020658E6
:0300130002051AC9
:03002B0002052F9C
:1000830002052B00000080FBE479497860B8000288
:100093008004F709D8FC78219000BB7A28BA0002C3
:1000A3008007E493A3F608DAF91202841200867536
:1000B300D0007581BF02008B5246204368616E6792
:1000C3006564000A689B060001000000A03E0D0065
:1000D30070C30D00E80300001A000000FFFFFFFFDC
:1000E300E4CFC0E0E4CEC0E0E4CDC0E0E4CCC0E0C7
:1000F30075F020E626F608E633F608E633F608E65A
:1001030033F6181818EC33FCED33FDEE33FEEF3302
:10011300FFC3EC9709ED9709EE9709EF97191919A2
:10012300400FFFEC97FC09ED97FD09EE97FE1919B7
:1001330006D5F0BFECF709EDF709EEF709EFF7196C
:100143001919D0E0FCD0E0FDD0E0FED0E0FF226042
:1001530016080808C6C313C618C613C618C613C69E
:1001630018C613C6D5E0EA227009080808226016EB
:10017300181818C6C333C608C633C608C633C6081C
:10018300C633C6D5E0EA22E627F60809E637F608BD
:1001930009E637F60809E637F622E7F60809E7F62F
:1001A3000809E7F60809E7F622600D08C6A2E71377
:1001B300C618C613C6D5E0F322700422600D18C614
:1001C300C333C608C633C6D5E0F41822D083D08221
:1001D300CEC0E0EFC0E0C0207808E608C0E0DEFA59
:1001E300E473C0D074072FD0D0F8D0E0F618DFFA4C
:1001F300D020D0E0FFD0E0FE22EAF8EBF9E824FFBC
:100203001AE934FFFBE84970F022C008C009C00AAC
:10021300C00B43FE0353FEF353C6BFE5BEA2E65035
:10022300FA53C6B843BE04792D780812019DAA0873
:10023300AB09AC0AAD0B12058F75A88185A2A24349
:10024300A11002032DE9FCF8E6FA08E6F8E4C8F980
:10025300EA28E439FB7849EAF608EBF674022CF84D
:10026300794BE6F7740112027512027528F809E654
:10027300F72228F809E6F7740128F809E6F774016C
:100283002212020D12076A7849760208760108766F
:10029300010876FF08087608087602087638120403
:1002A3004DE97862F67862E6640170F278A0E6249C
:1002B30001F608E436F6120336782CE678A0C396E6
:1002C30008E496501718760008760078627600786E
:1002D3005376047A087B007951120791786176008E
:1002E30080C3C008C009E9FC7B007A007900EC2ACE
:1002F30004F8E6F508750900E978081201ACE50889
:10030300A2E05012EA33333354F82904C0E074777F
:100313002BF8D0E0F60B09E9C3940840D10AEAC3ED
:10032300940540C8789FEBF68004D00BD00AD0091F
:10033300D0082274041201CFE5812414F58190DFE3
:100343003BE0640170F8C290784D76FF7A087949F2
:1003530012072DD290784B7601E58124F7F87600C9
:10036300087600087600087600800A7931E5812452
:10037300F7F812018AE58124F7F9780812019DE55F
:10038300084509450A450B60030204427E007F00CD
:1003930080050EEE70010F789FE6F8C3EE98EF9498
:1003A3000050C8EE2477F9784DE7F67A08794912B8
:1003B300072D7A027B001201FCE58124FBF876000D
:1003C300087600087600087600800A7931E58124F2
:1003D300FBF812018AE58124FBF9780812019DE5F7
:1003E300084509450A450B70A97CF0AB81E58114EA
:1003F300FA24EEF91206ACE960D1C291E58124ED4D
:10040300F9120248784BE6640870C076027E037ADC
:1004130008794912072D7A027B001201FCDEF0787D
:100423004D7955E6F7785376037A087B00795112B4
:10043300079178A0760008760078627600D291E57D
:100443008124ECF5817F040201E5C008C009C00ADC
:10045300C00B7861E6640170577600795F7860E6D7
:100463002463F8E7F6786006785FE664236007782C
:1004730060E6640F703A786076007865E664FE7033
:100483003408E6600814600914600A801A792D8024
:1004930006793580027939780812019DAA08AB09DB
:1004A300AC0AAD0B12058F7A0A7B007921120791F2
:1004B300790002032D18E6FAE4CAFB18E67851F630
:1004C30008EBF608760278667954E6F70809E6F74A
:1004D3000809E6F70809E6F708792CE6F7087959D9
:1004E300E6F77B00EA246CF8EA245AF9E6F70AEA0D
:1004F30070010BC3940AEB9400A2D265D03340E49D
:1005030079591202E57A087B0079511207917963D0
:100513001202487901809BC0E0E8C28B78617601C2
:10052300785FA6C1F8D0E032539BFC32C2C753A117
:10053300FE53BEFC438701003274081201CF8A0CBC
:100543008B0D8C0E8D0F740A780C12016B793D782C
:100553000812019D780C79081200E37406780C12D6
:10056300016B7941780812019D780C79081200E338
:10057300E50C90DF0BF0E50EC50D90DF0AF0850D5D
:1005830009E50990DF09F07F080201E590DF0474B3
:1005930005F090DF067403F0A37406F090DF0C748B
:1005A300F5F0A37483F0A37403F090DF117415F0D6
:1005B30090DF147418F0A314F090DF1C74E9F0A317
:1005C300742AF0A3E4F0A3741FF090DF247431F0D5
:1005D300A37409F090DF2E74C0F012053C90DF2E57
:1005E30074C0F075E10475E10190DF3BE0640170D4
:1005F300F8C2892274081201CFE9FC60558C82AAE3
:10060300828A088E09740778081201BCF50AF50B73
:10061300EA75F03BA4FAA8F0E4288A0CF50D3395AB
:10062300E0F50EF50F7808790C12018AE5C6540738
:10063300780812015285080C85090D850A0E850B71
:100643000F7945780812018AE50C450D450E450FD3
:1006530070E302058AC0E0C0D0E8C0E0E9C0E078FA
:10066300A3E678A2600AA6D978A3760078A8802C9E
:1006730079A4E7C39678A4500C79A5E726F8A6D900
:1006830078A406801979A2E76670090678A6E6F8C9
:10069300A6D9800A78A7E6F8A6D978A37601D0E090
:1006A300F9D0E0F8D0D0D0E03274021201CF89083B
:1006B3008A09EBFEECFF78A4760078A27600C28963
:1006C300D2A8D2AF53E9EF78A5A60878A6A60978F1
:1006D300A7EEF6EAF8760078A7E6F8760078A8762B
:1006E3000078A3760175E102800679011205F71FF0
:1006F300E5E9A2E44017EF70F178A8E6640170061B
:100703007FFF760080EA75E104C2A8801675E104D4
:1007130053E9EFC2A8EEF8E6A2E7500778A4E6147F
:10072300F9800279007F020201E5E9FBEA700379AF
:100733000022C289C2A853E9EF75E103A28950FCE4
:10074300C2898AD97900800DA28950FCC289EB291C
:10075300F8E6F5D909E9C39A40EEE5E9A2E450FACF
:1007630053E9EF75E1042253C6BFE5BEA2E650FA92
:1007730053C6B843BE0475F10075F33C438680430A
:10078300C50B43C222D2E943864043A884227C009E
:100793007D008012E7F5C109A2E950FCC2E9EC240F
:1007A300010CED3400FDC3EC9AED9BA2D265D0336E
:0307B30040E222FF
:04000005000000B245
:00000001FF
