:020000040000FA
:060000000200BB02030F29
:0300130002063CA6
:1000830002064D00000080FB1200C4B90003020009
:10009300B5E479637825B800028004F709D8FC78C1
:1000A300419000C77A22BA00028007E493A3F608BE
:1000B300DAF912049212008675D0007581BF02002E
:1000C3008B790122E80300001A000000FFFFFFFF05
:1000D3005A736572766572000A00689B0600000019
:1000E300000001000000E4CFC0E0E4CEC0E0E4CDB6
:1000F300C0E0E4CCC0E075F020C3E633F608E63395
:10010300F608E633F608E633F6181818EC33FCED78
:1001130033FDEE33FEEF33FFC3EC9709ED9709EEA2
:100123009709EF97191919400FFFEC97FC09ED9701
:10013300FD09EE97FE191906D5F0BEECF709EDF7A8
:1001430009EEF709EFF7191919D0E0FCD0E0FDD05B
:10015300E0FED0E0FF226016080808C6C313C618E5
:10016300C613C618C613C618C613C6D5E0EA22704E
:1001730009080808226016181818C6C333C608C62B
:1001830033C608C633C608C633C6D5E0EA22E62717
:10019300F60809E637F60809E637F60809E637F6FA
:1001A30022E7F60809E7F60809E7F60809E7F62261
:1001B300700422600D18C6C333C608C633C6D5E023
:1001C300F41822D083D082CEC0E0EFC0E0C0207804
:1001D30021E608C0E0DEFAE473C0D074202FD0D04B
:1001E300F8D0E0F618DFFAD020D0E0FFD0E0FE220E
:1001F30074081201C68A258B268C278D28740A78E9
:1002030025120172794178211201A47825792112EE
:1002130000E974067825120172794578211201A448
:10022300782579211200E9E52590DF0BF0E527C554
:100233002690DF0AF0852622E52290DF09F07F0869
:100243000201DC90DF047405F090DF067403F0A371
:100253007406F090DF0C74F5F0A37483F0A37403B9
:10026300F090DF117415F090DF147418F0A314F0FC
:1002730090DF1C74E9F0A3742AF0A3E4F0A3741FC5
:10028300F090DF247431F0A37409F090DF2E74C072
:10029300F01201F390DF2E74C0F075E10475E101F3
:1002A30090DF3BE0640170F8C2892274081201C632
:1002B300E9FC60558C82AA828A218E2274077821F8
:1002C3001201B3F523F524EA75F03BA4FAA8F0E490
:1002D300288A25F5263395E0F527F5287821792511
:1002E300120191E5C654077821120159852125850C
:1002F300222685232785242879497821120191E52F
:100303002545264527452870E3020241C0E0C0D0B9
:10031300E8C0E0E9C0E07864E67863600AA6D978CB
:100323006476007869802C7965E7C3967865500C0C
:100333007966E726F8A6D978650680197963E766B2
:100343007009067867E6F8A6D9800A7868E6F8A601
:10035300D978647601D0E0F9D0E0F8D0D0D0E0329B
:1003630074021201C689218A22EBFEECFF786576BE
:100373000078637600C289D2A8D2AF53E9EF7866DA
:10038300A6217867A6227868EEF6EAF87600786800
:10039300E6F87600786976007864760175E1028084
:1003A3000679011202AE1FE5E9A2E44017EF70F1EE
:1003B3007869E6640170067FFF760080EA75E104E0
:1003C300C2A8801675E10453E9EFC2A8EEF8E6A2CD
:1003D300E750077865E614F9800279007F0202018D
:1003E300DCE9FBEA7003790022C289C2A853E9EF72
:1003F30075E103A28950FCC2898AD97900800DA2D4
:100403008950FCC289EB29F8E6F5D909E9C39A407A
:10041300EEE5E9A2E450FA53E9EF75E10422C021C5
:10042300C022C023C02443FE0353FEF353C6BFE5DB
:10043300BEA2E650FA53C6B843BE047957782112D8
:1004430001A4AA21AB22AC23AD2412024675A881D4
:10045300D024D023D022D02122C021C022E9FAF80F
:10046300862175220008E6240878211201B3786AF0
:10047300A62108A62274022AF8796CE6F70809E691
:10048300F70809E6F70809E6F70809E6F780C51251
:1004930004211206517A077B00794D120678120562
:1004A300DBE9787BF6787BE6640170F27886E624F4
:1004B30001F608E436F61204E778557986C3E69721
:1004C3000809E697501878867600087600787B76D8
:1004D30000787376047A077B007971120678787A4C
:1004E300760080C174041201C6E5812414F581905D
:1004F300DF3BE0640170F8C290786D76FF7A07798C
:100503006A1203E4D290786C7601795BE58124F773
:10051300F81201A4801BEE24010EEF3400FFC3EE9A
:100523009405EF94004025795FE58124F7F81201E3
:1005330091E58124F7F978211201A4E521452245AB
:1005430023452460030205D07E007F00EE786DF61C
:100553007A07796A1203E4795BE58124FBF81201D7
:10056300A4800A795FE58124FBF8120191E58124D7
:10057300FBF978211201A4E5214522452345247086
:10058300957CF0AB81E58114FA24EEF9120363E95B
:1005930060D1C291E58124EDF912045C786CE664C4
:1005A3000870C076027A07796A1203E4786D797469
:1005B300E6F7787376037A077B0019191912067820
:1005C30078867600087600787B7600D291E58124E0
:1005D300ECF5817F040201DC787AE66401705776DA
:1005E3000078787979E7247CF9E6F77879067878E2
:1005F300E6642360077879E66407703A78797600D1
:10060300787DE6FB18E67871F608EBF60876027853
:100613007F7974E6F70809E6F70809E6F708E6784C
:1006230055F60876007A077B007971120678797C93
:1006330012045C790122790022C0E0E8C28B787A47
:1006430076017878A6C1F8D0E032539BFC3253C6CA
:10065300BFE5BEA2E650FA53C6B843BE0475F10027
:1006630075F33C43868043C50B43C222D2E94386DC
:100673004043A884227C007D008012E7F5C109A2D3
:10068300E950FCC2E9EC24010CED3400FDC3EC9A03
:0A069300ED9BA2D265D03340E222B5
:04000005000000BB3C
:00000001FF
