:1009D3001203D2D2AF120700E4FF12035D02081A1A
:10081A00E4900023F0C282120A01EF70FA7F0112FB
:10082A0005EBE4900023F01209E31209E390002398
:0D083A00E004F0E0C3946440EEB28280DA86
:10066400E490004DF0120A0FEF60191208C9EF244C
:10067400FE600C04700EE490004CF0C28080051201
:100684000700D28290004CE0FF04F0EFD394FA40CC
:05069400D4D28080D0EB
:1005EB00D280E4900001F07E01A304F0900008EFAC
:1005FB00F07B017A00790174012407FD12000312CC
:10060B000A01EF70FA120953EF6009D2811209E364
:0D061B00C2818007D2821209E3C282C28030
:0106280022AF
:1008C9007B017A007901120970900048EFF09000DD
:1008D90001E0900047F0900002E0900046F090009F
:0308E90008E0FF25
:0108EC0022E9
:03004B0002062981
:10062900C0E0C0F0C083C082C0D075D000C000C097
:1006390001C002C003C004C005C006C0071208A15A
:10064900D007D006D005D004D003D002D001D00005
:0B065900D0D0D082D083D0F0D0E032AF
:03002300020910BF
:10091000C0E0C083C08230980DC298900000E59975
:10092000F0E0F5998005309902C299D082D083D049
:02093000E032B3
:050B36002233445501CB
:10035D00900023EFF0C2E87F011207307F011206F3
:10036D00CE7FFF120A1D7FFF1204317D01E4FF12C3
:10037D0002487F021204DD7DFA7C007F0F120847D0
:10038D007F051209897BFF7A0B79367F0612048D62
:10039D007BFF7A0B7936E4FF12048D900023E0B4D5
:1003AD0001097F01120790D2E88005E4FF12079042
:1003BD007F2812099E7F011207BE7F02120932E4C7
:0503CD00900057F02232
:03000300120ABF1F
:100006009000247414F0D2E8900024E0FF14F0EF7E
:0400160070F6C2E8D6
:07001A0090005774FFF02273
:0E0A0100900057E0B4FF047F0180027F0022C6
:10095300900057E024FC600B14700FE4900057F0F4
:0D0963007F0122E4900057F0FF227F002268
:0E0A0F00900057E0B406047F0180027F0022B1
:10097000120B30EF900056F0120AA1BF0105E4906F
:080980000057F0900056E0FF63
:01098800224C
:1008A100120A52EF24E0601224E060152430701720
:1008B100120AF19000577404F0229000577405F069
:0808C100229000577406F0229A
:1003D200C2AF75A32875AD011209E31209E3120930
:1003E200E31209E31209E31209E3E4F5AEF5B47589
:1003F200B58075B307F5CEF5CF75A5EBF5D3F5D27C
:10040200F5D1F5DBF5B2F580F590F593F5945393BC
:10041200F743931043801875985043878043D880E0
:0F04220075AAF375BA03D2ACD2EAD2B9D2AF221F
:10070000E4900023F0D2801209E3C2801209E3D200
:10071000811209E3C2811209E3D2821209E3C28283
:0F0720001209E3900023E004F0E0C3940340D6F5
:01072F0022A7
:0E09E300E4FFFE0FBF00010EBE3AF8BF98F50C
:0109F10022E3
:05079000900024EFF0D1
:10079500E4FF1209C6900025EFF0900024E0B401B3
:1007A50007A3E04401F08007900025E054FEF09097
:0907B5000025E0FDE4FF0208ED5F
:0507BE00900024EFF0A3
:1007C300E4FF1209C6900025EFF0900024E0B40185
:1007D30007A3E04402F08007900025E054FDF09069
:0907E3000025E0FDE4FF0208ED31
:0504DD00900024EFF087
:1004E200E4FF1209C6900025EFF0900024E01460AA
:1004F2001014601A24027021900025E054F7F08055
:1005020018900025E04408F0E054FBF0800B9000C6
:1005120025E04408F0E04404F0900025E0FDE4FF0B
:030522000208EDDF
:0802DA00900049EFF0A3EDF0E4
:1002E200E4FF1209C690004BEFF0900049E024FBB6
:1002F200602414603F2402705890004AE060047F3A
:100302000080027F01EF5401C454F0FF90004BE0E3
:1003120054EF4FF0803B90004AE060047F0080027F
:100322007F01EF5401C43354E0FF90004BE054DFEF
:100332004FF0801D90004AE060047F0080027F0140
:10034200EF5401C4333354C0FF90004BE054BF4F0D
:0B035200F090004BE0FDE4FF0208ED1E
:0B0A52007D707F071208EDEF5470FF6D
:010A5D002276
:1009B1007401A807088002C333D8FCFD7F07020831
:0109C100ED48
:080B0F00120AFBEF5470FF22F3
:08024800900024EFF0A3EDF09B
:100250007F021209C6900026EFF07F011209C690B6
:100260000027EFF0900024E0FF24FA5006240760F6
:100270003C80537401A807088002C333D8FCFD906A
:100280000026E04DF0900025E06008900027E04D4A
:10029000F08033900024E0FF7401A807088002C3B7
:1002A00033D8FCF4FF900027E05FF080199000261F
:1002B000743FF0900025E06008900027743FF080C4
:1002C00005E4900027F0900026E0FD7F021208ED83
:0A02D000900027E0FD7F010208ED19
:05043100900024EFF033
:100436007F021209C6900025EFF07F011209C690CF
:100446000026EFF0900024E0FF24FA50062407600F
:100456001B80207401A807088002C333D8FCF4FD72
:10046600900025E05DF0A3E05DF08007E4900025B4
:10047600F0A3F0900025E0FD7F021208ED90002623
:07048600E0FD7F010208ED1B
:10048D00900025EBF0A3EAF0A3E9F0900024EFF043
:10049D0014600A24FB5021600424067032120A8D68
:1004AD0090002CEFF0900024E0242AFFA3E0FBA3A2
:1004BD00E0FAA3E0F9020699900024E0240AFFA3D4
:1004CD00E0FBA3E0FAA3E0F91201B2FD1208ED2260
:10052500900043EBF0A3EAF0A3E9F0900042EFF06E
:1005350014600824FB600424067011900042E0FF5B
:10054500A3E0FBA3E0FAA3E0F902010D900042E06D
:10055500240AFF1209C6900043E0FBA3E0FAA3E0DA
:08056500F9EF1201CB7F012226
:02084700AB07FD
:10084900AE04AF057C007DFA1201DDEF14540FC42C
:1008590054F0FF900024E0540F4FF0EB540FFFE0E9
:0B08690054F04FF0E0FD7F040208EDAA
:10098900EF24FE5403FF900024E054FC4FF0E0FDF7
:050999007F030208EDE0
:0A0A8D007F031209C6EF2402FF22C6
:070B1700EF2411FF0208EDBD
:05004E00900033EFF00B
:100053007F021209C6900034EFF07F011209C690A7
:100063000035EFF0900033E0146020146031146029
:10007300421460551460642405707A900034E0548F
:1000830001900036F0900035E08062900034E0C3C8
:10009300135401900036F0900035E0C313804E9066
:1000A3000034E013135401900036F0900035E01350
:1000B30013803A900034E01313135401900036F088
:1000C300900035E01313138024900034E0C45401EE
:1000D300900036F0900035E0C48012900034E0C404
:1000E300135401900036F0900035E0C4135401908E
:1000F3000037F08007E4900036F0A3F0900037E07B
:0901030025E0FF900036E02FFF1B
:01010C0022D0
:060B1E007F081209C62247
:0D0A2B007F081209C6EF54F0C4540FFF22DB
:10056D00EF146014146015146016146017146018DD
:10057D00240570207F1180127F12800E7F13800A58
:10058D007F1480067F1580027F161209C6900058D1
:0E059D00EFF08005E4900058F0900058E0FF69
:0105AB00222D
:10099E00EF547FFF900024E054804FF0E0FD7F0580
:0309AE000208ED4F
:030932009000240E
:100935001209C2900025EFF0900024E0540325E051
:0E094500FFA3E054F94FF0E0FD7F060208ED3D
:0305AC0090004E6E
:1005AF001209C290004FEFF090004EE0600C24FE55
:1005BF00701590004FE04420800690004FE054DF0C
:1005CF00F0E054F7F0800B90004FE054DFF0E04480
:0C05DF0008F090004FE0FD7F060208EDE0
:0C0A5E00120AD3BF07037F01227F002291
:0A0A97007F171209C6EF5401FF2279
:0B0A82007F171209C6EFC45401FF22C9
:0C0A6A007F171209C6EFC4135401FF22CD
:0D0A38007F171209C6EF5430C4540FFF227F
:0A0AA1007F171209C6EF5403FF226D
:060B24007F171209C62232
:0A0AAB007F081209C6EF540FFF2266
:0A0AB5007F091209C6EF5401FF2269
:0100210022BC
:0E0A1D00EF543F900024F0E0FD7F1C0208ED36
:0506CE00900024EFF094
:1006D3007F1D1209C6900025EFF0900024E060040E
:1006E3007F0180027F00EF540125E025E0FF9000A9
:0D06F30025E054FB4FF0E0FD7F1D0208EDF7
:05073000900024EFF031
:100735007F1D1209C6900025EFF0900024E06004AB
:100745007F0180027F00EF540125E0FF900025E046
:0B07550054FD4FF0E0FD7F1D0208ED99
:0507EC00900050EFF049
:1007F1007F1D1209C6900051EFF0900050E0600497
:100801007F0180027F00EF5401FF900051E054FE10
:090811004FF0E0FD7F1D0208ED2F
:0A0ABF0090002CEDF07FA0020699D4
:0A0AC90090002CEDF07FB0020699BA
:0F09F200EF44A8FF90003CE090002CF002069923
:060B2A007F601209C622E3
:060B30007F0812010D22F6
:0A0AD300120AFBEF540EC313FF22BA
:0A0ADD00C2E97FE3120B05D2E92203
:0D0A4500120B24EF5440C413135403FF227E
:0A0AE700C2E97FE2120B05D2E922FA
:0A0AF100C2E97FE1120B05D2E922F1
:090AFB00C2E97FFF120B05D2E9EC
:010B040022CE
:030874009000529F
:100877001209C2900053EFF0900052E060047F012C
:1008870080027F00EF5401C454F0FF900053E054FE
:0A089700EF4FF0E0FD7F060208EDD0
:100026007B017A0079407F1E12010D900040E0FEB0
:10003600A3E0FDEDFF90003DEEF0A3EFF090003D54
:04004600E05407FF7C
:01004A002293
:03076000900054B2
:100763001209C2900055EFF0900054E060047F013D
:1007730080027F00EF5401C43333335480FF900071
:0D07830055E0547F4FF0E0FD7F060208EDC9
:0409C200EFF07F06CD
:0C09C600C2E9120B05E4FF120B05D2E998
:0109D2002202
:0508ED00900028EDF071
:1008F200C2E9EF2420FF120B05900029EFF09000CF
:0D09020028E0FF120B05D2E9900029E0FF6C
:01090F0022C5
:10010D0090002EEBF0A3EAF0A3E9F090002DEFF0B4
:10011D0014601024FB600C24FE601D24EA6036245C
:10012D001E7045120A8D900031EFF0A3F0C2E990D8
:10013D00002DE0240AFF802B120AD390002DEFF042
:10014D00C394075023120B2A900031EFF0A3F0C295
:10015D00E97F61800E9000327402F0900031F0C2A0
:10016D00E97F1E120B058009E4900032F0900031FA
:10017D00F0900031E0FF14F0EF601BE4FF120B056F
:10018D0090002EE0FBA3E475F001120232A9F0FA03
:10019D00EF1201CB80DBD2E990002DE0FE90003212
:0401AD00E0FDEDFF85
:0101B100222B
:10069900900029EBF0A3EAF0A3E9F0C2E9801E90EB
:1006A900002CE0FF14F0EF6019900029E0FBA3E4AF
:1006B90075F001120232A9F0FA1201B2FF120B050C
:0506C90080DDD2E922F2
:0A0B05008FE7E5E630E1FBAFE722E1
:03000000020A767B
:0C0A7600787FE4F6D8FD7581070209D3F3
:1001B200BB010689828A83E0225002E722BBFE024B
:0901C200E32289828A83E493227E
:1001CB00BB010689828A83F0225002F722BBFE0113
:0201DB00F3220D
:1001DD00BC000BBE0029EF8DF084FFADF022E4CC06
:1001ED00F875F008EF2FFFEE33FEEC33FCEE9DECCF
:1001FD00984005FCEE9DFE0FD5F0E9E4CEFD22ED15
:10020D00F8F5F0EE8420D21CFEADF075F008EF2F5E
:10021D00FFED33FD4007985006D5F0F222C398FD4F
:05022D000FD5F0EA22EC
:10023200A3F8E0C5F025F0F0E5821582700215837F
:06024200E0C838F0E822DC
:00000001FF
