:10099D001206A8D2AF1206D97F0112035D02050916
:10000300C2821209CBEF70FA2084087F011205C85F
:100013003084FD2085EC7F021205C82085E480FB37
:10050900E4900023F0D282C2801209D9EF60191257
:100519000875EF24FE600C04700EE4900023F0D2FD
:100529008080051206D9D2821209AD1209AD900058
:1005390023E0FF04F0EFD3946440CEC280E4F0805E
:01054900C8E9
:1005C800D280E4900001F07E01A304F0900008EFCF
:1005D800F07B017A00790174012407FD1208FF12EB
:1005E80009CBEF70FA12091DEF6009D2811209AD2B
:0D05F800C2818007D2821209ADC282C2808A
:0106050022D2
:100875007B017A00790112093A900026EFF0900089
:1008850001E0900025F0900002E0900024F0900037
:0308950008E0FF79
:01089800223D
:03004B00020606A4
:10060600C0E0C0F0C083C082C0D075D000C000C0BA
:1006160001C002C003C004C005C006C00712084DD1
:10062600D007D006D005D004D003D002D001D00028
:0B063600D0D0D082D083D0F0D0E032D2
:030023000208BC14
:1008BC00C0E0C083C08230980DC298900000E599CA
:1008CC00F0E0F5998005309902C299D082D083D09E
:0208DC00E03208
:050B0000223344550101
:10035D00900023EFF0C2E87F011207097F0112061A
:10036D00767FFF1209E77FFF1203CD7D01E4FF12B7
:10037D0002487F021204797DFA7C007F0F1207F389
:10038D007F051209537BFF7A0B79007F0612042932
:10039D007BFF7A0B7900E4FF120429900023E0B46F
:1003AD0001097F01120769D2E88005E4FF12076990
:1003BD007F281209687F01120797E490004FF02201
:0308FF00120A8951
:1009020090004E7414F0D2E890004EE0FF14F0EF25
:0409120070F6C2E8D1
:0709160090004F74FFF02276
:0E09CB0090004FE0B4FF047F0180027F002205
:10091D0090004FE024FC600B14700FE490004FF03A
:0D092D007F0122E490004FF0FF227F0022A6
:0E09D90090004FE0B406047F0180027F0022F0
:10093A00120AFAEF900027F0120A6BBF0105E49041
:08094A00004FF0900027E0FFD0
:010952002282
:10084D00120A1CEF24E0601224E0601524307017AA
:10085D00120ABB90004F7404F02290004F7405F003
:08086D002290004F7406F022F6
:1006A80075A3281209AD1209ADE4F580F590F5930C
:1006B800F5945393F74393104380187598504387E4
:1006C8008043D88075AAF375BA03D2ACD2EAD2B9FE
:0106D80022FF
:1006D900E4900024F0D2801209ADC2801209ADD293
:1006E900811209ADC2811209ADD2821209ADC2824D
:0F06F9001209AD900024E004F0E0C3940340D652
:0107080022CE
:0E09AD00E4FFFE0FBF00010EBE3AF8BF98F542
:0109BB002219
:05076900900024EFF0F8
:10076E00E4FF120990900025EFF0900024E0B40110
:10077E0007A3E04401F08007900025E054FEF090BE
:09078E000025E0FDE4FF020899DA
:05079700900024EFF0CA
:10079C00E4FF120990900025EFF0900024E0B401E2
:1007AC0007A3E04402F08007900025E054FDF09090
:0907BC000025E0FDE4FF020899AC
:05047900900024EFF0EB
:10047E00E4FF120990900025EFF0900024E0146044
:10048E001014601A24027021900025E054F7F080B9
:10049E0018900025E04408F0E054FBF0800B90002B
:1004AE0025E04408F0E04404F0900025E0FDE4FF70
:0304BE0002089998
:0802DA00900041EFF0A3EDF0EC
:1002E200E4FF120990900043EFF0900041E024FBFC
:1002F200602414603F24027058900042E060047F42
:100302000080027F01EF5401C454F0FF900043E0EB
:1003120054EF4FF0803B900042E060047F00800287
:100322007F01EF5401C43354E0FF900043E054DFF7
:100332004FF0801D900042E060047F0080027F0148
:10034200EF5401C4333354C0FF900043E054BF4F15
:0B035200F0900043E0FDE4FF0208997A
:0B0A1C007D707F07120899EF5470FFF7
:010A270022AC
:10097B007401A807088002C333D8FCFD7F07020867
:01098B0099D2
:080AD900120AC5EF5470FF2260
:08024800900024EFF0A3EDF09B
:100250007F02120990900026EFF07F011209909022
:100260000027EFF0900024E0FF24FA5006240760F6
:100270003C80537401A807088002C333D8FCFD906A
:100280000026E04DF0900025E06008900027E04D4A
:10029000F08033900024E0FF7401A807088002C3B7
:1002A00033D8FCF4FF900027E05FF080199000261F
:1002B000743FF0900025E06008900027743FF080C4
:1002C00005E4900027F0900026E0FD7F02120899D7
:0A02D000900027E0FD7F010208996D
:0503CD00900024EFF098
:1003D2007F02120990900025EFF07F0112099090A0
:1003E2000026EFF0900024E0FF24FA500624076074
:1003F2001B80207401A807088002C333D8FCF4FDD7
:10040200900025E05DF0A3E05DF08007E490002518
:10041200F0A3F0900025E0FD7F02120899900026DB
:07042200E0FD7F01020899D3
:10042900900025EBF0A3EAF0A3E9F0900024EFF0A7
:1004390014600A24FB5021600424067032120A5702
:1004490090002CEFF0900024E0242AFFA3E0FBA306
:10045900E0FAA3E0F9020641900024E0240AFFA390
:10046900E0FBA3E0FAA3E0F91201B2FD1208992218
:1004C10090003EEBF0A3EAF0A3E9F090003DEFF0DD
:1004D10014600824FB60042406701190003DE0FFC5
:1004E100A3E0FBA3E0FAA3E0F902010D90003DE0D7
:1004F100240AFF12099090003EE0FBA3E0FAA3E07A
:08050100F9EF1201CB7F01228A
:0207F300AB0752
:1007F500AE04AF057C007DFA1201DDEF14540FC481
:1008050054F0FF900024E0540F4FF0EB540FFFE03D
:0B08150054F04FF0E0FD7F0402089952
:10095300EF24FE5403FF900024E054FC4FF0E0FD2D
:050963007F030208996A
:0A0A57007F03120990EF2402FF2232
:070AE100EF2411FF02089948
:05004E0090002EEFF010
:100053007F0212099090002FEFF07F011209909018
:100063000030EFF090002EE0146020146031146033
:10007300421460551460642405707A90002FE05494
:1000830001900031F0900030E0806290002FE0C3D7
:10009300135401900031F0900030E0C313804E9070
:1000A300002FE013135401900031F0900030E0135F
:1000B30013803A90002FE01313135401900031F092
:1000C300900030E0131313802490002FE0C45401F8
:1000D300900031F0900030E0C4801290002FE0C413
:1000E300135401900031F0900030E0C41354019098
:1000F3000032F08007E4900031F0A3F0900032E08A
:0901030025E0FF900031E02FFF20
:01010C0022D0
:060AE8007F0812099022B4
:0D09F5007F08120990EF54F0C4540FFF2248
:10054A00EF14601414601514601614601714601800
:10055A00240570207F1180127F12800E7F13800A7B
:10056A007F1480067F1580027F1612099090005032
:0E057A00EFF08005E4900050F0900050E0FF9C
:010588002250
:10096800EF547FFF900024E054804FF0E0FD7F05B6
:03097800020899D9
:0308DE0090004443
:1008E10012098C900045EFF0900044E0540325E09C
:0E08F100FFA3E054F94FF0E0FD7F06020899E6
:0305890090004699
:10058C0012098C900047EFF0900046E0600C24FEBE
:10059C007015900047E044208006900047E054DF3F
:1005AC00F0E054F7F0800B900047E054DFF0E044AB
:0C05BC0008F0900047E0FD7F060208995F
:0C0A2800120A9DBF07037F01227F0022FD
:0A0A61007F17120990EF5401FF22E5
:0B0A4C007F17120990EFC45401FF2235
:0C0A34007F17120990EFC4135401FF2239
:0D0A02007F17120990EF5430C4540FFF22EB
:0A0A6B007F17120990EF5403FF22D9
:060AEE007F17120990229F
:0A0A75007F08120990EF540FFF22D2
:0A0A7F007F09120990EF5401FF22D5
:010B050022CD
:0E09E700EF543F900024F0E0FD7F1C020899C1
:05067600900024EFF0EC
:10067B007F1D120990900025EFF0900024E060049C
:10068B007F0180027F00EF540125E025E0FF900001
:0D069B0025E054FB4FF0E0FD7F1D020899A3
:05070900900024EFF058
:10070E007F1D120990900025EFF0900024E0600408
:10071E007F0180027F00EF540125E0FF900025E06D
:0B072E0054FD4FF0E0FD7F1D02089914
:0507C500900048EFF078
:1007CA007F1D120990900049EFF0900048E0600404
:1007DA007F0180027F00EF5401FF900049E054FE40
:0907EA004FF0E0FD7F1D020899AB
:0A0A890090002CEDF07FA002064162
:0A0A930090002CEDF07FB002064148
:0F09BC00EF44A8FF900037E090002CF0020641B6
:060AF4007F601209902250
:060AFA007F0812010D222D
:0A0A9D00120AC5EF540EC313FF2226
:0A0AA700C2E97FE3120ACFD2E92270
:0D0A0F00120AEEEF5440C413135403FF22EB
:0A0AB100C2E97FE2120ACFD2E92267
:0A0ABB00C2E97FE1120ACFD2E9225E
:090AC500C2E97FFF120ACFD2E959
:010ACE002205
:0308200090004AFB
:1008230012098C90004BEFF090004AE060047F01C6
:1008330080027F00EF5401C454F0FF90004BE0545A
:0A084300EF4FF0E0FD7F0602089978
:100026007B017A00793B7F1E12010D90003BE0FEBA
:10003600A3E0FDEDFF900038EEF0A3EFF09000385E
:04004600E05407FF7C
:01004A002293
:0307390090004CE1
:10073C0012098C90004DEFF090004CE060047F01AA
:10074C0080027F00EF5401C43333335480FF900098
:0D075C004DE0547F4FF0E0FD7F060208994C
:04098C00EFF07F0603
:0C099000C2E9120ACFE4FF120ACFD2E93C
:01099C002238
:05089900900028EDF0C5
:10089E00C2E9EF2420FF120ACF900029EFF090005A
:0D08AE0028E0FF120ACFD2E9900029E0FFF8
:0108BB00221A
:10010D00900029EBF0A3EAF0A3E9F0900028EFF0BE
:10011D0014601024FB600C24FE601D24EA6036245C
:10012D001E7045120A5790002CEFF0A3F0C2E99013
:10013D000028E0240AFF802B120A9D900028EFF082
:10014D00C394075023120AF490002CEFF0A3F0C2D1
:10015D00E97F61800E90002D7402F090002CF0C2AA
:10016D00E97F1E120ACF8009E490002DF090002C3B
:10017D00F090002CE0FF14F0EF601BE4FF120ACFAB
:10018D00900029E0FBA3E475F001120232A9F0FA08
:10019D00EF1201CB80DBD2E9900028E0FE90002D1C
:0401AD00E0FDEDFF85
:0101B100222B
:10064100900029EBF0A3EAF0A3E9F0C2E9801E9043
:10065100002CE0FF14F0EF6019900029E0FBA3E407
:1006610075F001120232A9F0FA1201B2FF120ACF9B
:0506710080DDD2E9224A
:0A0ACF008FE7E5E630E1FBAFE72218
:03000000020A40B1
:0C0A4000787FE4F6D8FD75810702099D5F
:1001B200BB010689828A83E0225002E722BBFE024B
:0901C200E32289828A83E493227E
:1001CB00BB010689828A83F0225002F722BBFE0113
:0201DB00F3220D
:1001DD00BC000BBE0029EF8DF084FFADF022E4CC06
:1001ED00F875F008EF2FFFEE33FEEC33FCEE9DECCF
:1001FD00984005FCEE9DFE0FD5F0E9E4CEFD22ED15
:10020D00F8F5F0EE8420D21CFEADF075F008EF2F5E
:10021D00FFED33FD4007985006D5F0F222C398FD4F
:05022D000FD5F0EA22EC
:10023200A3F8E0C5F025F0F0E5821582700215837F
:06024200E0C838F0E822DC
:00000001FF
